{
  "_format": "hh-sol-artifact-1",
  "contractName": "XPSystem",
  "sourceName": "contracts/XPSystem.sol",
  "abi": [
    {
      "inputs": [],
      "stateMutability": "nonpayable",
      "type": "constructor"
    },
    {
      "inputs": [
        {
          "internalType": "address",
          "name": "owner",
          "type": "address"
        }
      ],
      "name": "OwnableInvalidOwner",
      "type": "error"
    },
    {
      "inputs": [
        {
          "internalType": "address",
          "name": "account",
          "type": "address"
        }
      ],
      "name": "OwnableUnauthorizedAccount",
      "type": "error"
    },
    {
      "anonymous": false,
      "inputs": [
        {
          "indexed": false,
          "internalType": "uint256",
          "name": "tokenId",
          "type": "uint256"
        },
        {
          "indexed": false,
          "internalType": "uint256",
          "name": "xpAmount",
          "type": "uint256"
        }
      ],
      "name": "NFTXPAssigned",
      "type": "event"
    },
    {
      "anonymous": false,
      "inputs": [
        {
          "indexed": true,
          "internalType": "address",
          "name": "previousOwner",
          "type": "address"
        },
        {
          "indexed": true,
          "internalType": "address",
          "name": "newOwner",
          "type": "address"
        }
      ],
      "name": "OwnershipTransferred",
      "type": "event"
    },
    {
      "anonymous": false,
      "inputs": [
        {
          "indexed": false,
          "internalType": "address",
          "name": "user",
          "type": "address"
        },
        {
          "indexed": false,
          "internalType": "uint256",
          "name": "newXP",
          "type": "uint256"
        }
      ],
      "name": "XPUpdated",
      "type": "event"
    },
    {
      "inputs": [
        {
          "internalType": "uint256",
          "name": "tokenId",
          "type": "uint256"
        }
      ],
      "name": "generateRandomXP",
      "outputs": [
        {
          "internalType": "uint256",
          "name": "",
          "type": "uint256"
        }
      ],
      "stateMutability": "nonpayable",
      "type": "function"
    },
    {
      "inputs": [
        {
          "internalType": "address",
          "name": "",
          "type": "address"
        },
        {
          "internalType": "uint256",
          "name": "",
          "type": "uint256"
        }
      ],
      "name": "hasNFTXP",
      "outputs": [
        {
          "internalType": "bool",
          "name": "",
          "type": "bool"
        }
      ],
      "stateMutability": "view",
      "type": "function"
    },
    {
      "inputs": [
        {
          "internalType": "uint256",
          "name": "",
          "type": "uint256"
        }
      ],
      "name": "nftXP",
      "outputs": [
        {
          "internalType": "uint256",
          "name": "",
          "type": "uint256"
        }
      ],
      "stateMutability": "view",
      "type": "function"
    },
    {
      "inputs": [],
      "name": "owner",
      "outputs": [
        {
          "internalType": "address",
          "name": "",
          "type": "address"
        }
      ],
      "stateMutability": "view",
      "type": "function"
    },
    {
      "inputs": [],
      "name": "renounceOwnership",
      "outputs": [],
      "stateMutability": "nonpayable",
      "type": "function"
    },
    {
      "inputs": [
        {
          "internalType": "address",
          "name": "newOwner",
          "type": "address"
        }
      ],
      "name": "transferOwnership",
      "outputs": [],
      "stateMutability": "nonpayable",
      "type": "function"
    },
    {
      "inputs": [
        {
          "internalType": "address",
          "name": "user",
          "type": "address"
        },
        {
          "internalType": "uint256",
          "name": "tokenId",
          "type": "uint256"
        },
        {
          "internalType": "bool",
          "name": "isAdd",
          "type": "bool"
        }
      ],
      "name": "updateUserXP",
      "outputs": [],
      "stateMutability": "nonpayable",
      "type": "function"
    },
    {
      "inputs": [
        {
          "internalType": "address",
          "name": "",
          "type": "address"
        }
      ],
      "name": "userXP",
      "outputs": [
        {
          "internalType": "uint256",
          "name": "",
          "type": "uint256"
        }
      ],
      "stateMutability": "view",
      "type": "function"
    }
  ],
  "bytecode": "0x608060405234801561001057600080fd5b5033600073ffffffffffffffffffffffffffffffffffffffff168173ffffffffffffffffffffffffffffffffffffffff16036100845760006040517f1e4fbdf700000000000000000000000000000000000000000000000000000000815260040161007b919061019e565b60405180910390fd5b6100938161009960201b60201c565b506101b9565b60008060009054906101000a900473ffffffffffffffffffffffffffffffffffffffff169050816000806101000a81548173ffffffffffffffffffffffffffffffffffffffff021916908373ffffffffffffffffffffffffffffffffffffffff1602179055508173ffffffffffffffffffffffffffffffffffffffff168173ffffffffffffffffffffffffffffffffffffffff167f8be0079c531659141344cd1fd0a4f28419497f9722a3daafe3b4186f6b6457e060405160405180910390a35050565b600073ffffffffffffffffffffffffffffffffffffffff82169050919050565b60006101888261015d565b9050919050565b6101988161017d565b82525050565b60006020820190506101b3600083018461018f565b92915050565b610dc7806101c86000396000f3fe608060405234801561001057600080fd5b50600436106100875760003560e01c806382f094aa1161005b57806382f094aa146101125780638da5cb5b14610142578063925e6b1714610160578063f2fde38b1461019057610087565b8062e470921461008c57806323932230146100bc578063515722c8146100ec578063715018a614610108575b600080fd5b6100a660048036038101906100a19190610949565b6101ac565b6040516100b391906109a4565b60405180910390f35b6100d660048036038101906100d191906109bf565b6101db565b6040516100e391906109fb565b60405180910390f35b61010660048036038101906101019190610a42565b6101f3565b005b6101106105df565b005b61012c60048036038101906101279190610a95565b6105f3565b60405161013991906109fb565b60405180910390f35b61014a61060b565b6040516101579190610ad1565b60405180910390f35b61017a60048036038101906101759190610a95565b610634565b60405161018791906109fb565b60405180910390f35b6101aa60048036038101906101a591906109bf565b6106d7565b005b60036020528160005260406000206020528060005260406000206000915091509054906101000a900460ff1681565b60016020528060005260406000206000915090505481565b600060026000848152602001908152602001600020549050811561037357600360008573ffffffffffffffffffffffffffffffffffffffff1673ffffffffffffffffffffffffffffffffffffffff168152602001908152602001600020600084815260200190815260200160002060009054906101000a900460ff16156102af576040517f08c379a00000000000000000000000000000000000000000000000000000000081526004016102a690610b49565b60405180910390fd5b80600160008673ffffffffffffffffffffffffffffffffffffffff1673ffffffffffffffffffffffffffffffffffffffff16815260200190815260200160002060008282546102fe9190610b98565b925050819055506001600360008673ffffffffffffffffffffffffffffffffffffffff1673ffffffffffffffffffffffffffffffffffffffff168152602001908152602001600020600085815260200190815260200160002060006101000a81548160ff021916908315150217905550610561565b600360008573ffffffffffffffffffffffffffffffffffffffff1673ffffffffffffffffffffffffffffffffffffffff168152602001908152602001600020600084815260200190815260200160002060009054906101000a900460ff16610410576040517f08c379a000000000000000000000000000000000000000000000000000000000815260040161040790610c3e565b60405180910390fd5b80600160008673ffffffffffffffffffffffffffffffffffffffff1673ffffffffffffffffffffffffffffffffffffffff16815260200190815260200160002054106104b15780600160008673ffffffffffffffffffffffffffffffffffffffff1673ffffffffffffffffffffffffffffffffffffffff16815260200190815260200160002060008282546104a59190610c5e565b925050819055506104f7565b6000600160008673ffffffffffffffffffffffffffffffffffffffff1673ffffffffffffffffffffffffffffffffffffffff168152602001908152602001600020819055505b6000600360008673ffffffffffffffffffffffffffffffffffffffff1673ffffffffffffffffffffffffffffffffffffffff168152602001908152602001600020600085815260200190815260200160002060006101000a81548160ff0219169083151502179055505b7fa758de57fcdc5a7a07f9edcf92ee01c7ae848dc78b7fdc3330f82a2ea2c2e52b84600160008773ffffffffffffffffffffffffffffffffffffffff1673ffffffffffffffffffffffffffffffffffffffff168152602001908152602001600020546040516105d1929190610c92565b60405180910390a150505050565b6105e761075d565b6105f160006107e4565b565b60026020528060005260406000206000915090505481565b60008060009054906101000a900473ffffffffffffffffffffffffffffffffffffffff16905090565b60008060016064428560405160200161064e929190610cdc565b6040516020818303038152906040528051906020012060001c6106719190610d37565b61067b9190610b98565b90508060026000858152602001908152602001600020819055507fd1623c81583038596b48e88e2f5ddce029d5b07e6cedc76c627360406856c5e283826040516106c6929190610d68565b60405180910390a180915050919050565b6106df61075d565b600073ffffffffffffffffffffffffffffffffffffffff168173ffffffffffffffffffffffffffffffffffffffff16036107515760006040517f1e4fbdf70000000000000000000000000000000000000000000000000000000081526004016107489190610ad1565b60405180910390fd5b61075a816107e4565b50565b6107656108a8565b73ffffffffffffffffffffffffffffffffffffffff1661078361060b565b73ffffffffffffffffffffffffffffffffffffffff16146107e2576107a66108a8565b6040517f118cdaa70000000000000000000000000000000000000000000000000000000081526004016107d99190610ad1565b60405180910390fd5b565b60008060009054906101000a900473ffffffffffffffffffffffffffffffffffffffff169050816000806101000a81548173ffffffffffffffffffffffffffffffffffffffff021916908373ffffffffffffffffffffffffffffffffffffffff1602179055508173ffffffffffffffffffffffffffffffffffffffff168173ffffffffffffffffffffffffffffffffffffffff167f8be0079c531659141344cd1fd0a4f28419497f9722a3daafe3b4186f6b6457e060405160405180910390a35050565b600033905090565b600080fd5b600073ffffffffffffffffffffffffffffffffffffffff82169050919050565b60006108e0826108b5565b9050919050565b6108f0816108d5565b81146108fb57600080fd5b50565b60008135905061090d816108e7565b92915050565b6000819050919050565b61092681610913565b811461093157600080fd5b50565b6000813590506109438161091d565b92915050565b600080604083850312156109605761095f6108b0565b5b600061096e858286016108fe565b925050602061097f85828601610934565b9150509250929050565b60008115159050919050565b61099e81610989565b82525050565b60006020820190506109b96000830184610995565b92915050565b6000602082840312156109d5576109d46108b0565b5b60006109e3848285016108fe565b91505092915050565b6109f581610913565b82525050565b6000602082019050610a1060008301846109ec565b92915050565b610a1f81610989565b8114610a2a57600080fd5b50565b600081359050610a3c81610a16565b92915050565b600080600060608486031215610a5b57610a5a6108b0565b5b6000610a69868287016108fe565b9350506020610a7a86828701610934565b9250506040610a8b86828701610a2d565b9150509250925092565b600060208284031215610aab57610aaa6108b0565b5b6000610ab984828501610934565b91505092915050565b610acb816108d5565b82525050565b6000602082019050610ae66000830184610ac2565b92915050565b600082825260208201905092915050565b7f5573657220616c72656164792068617320585020666f722074686973204e4654600082015250565b6000610b33602083610aec565b9150610b3e82610afd565b602082019050919050565b60006020820190508181036000830152610b6281610b26565b9050919050565b7f4e487b7100000000000000000000000000000000000000000000000000000000600052601160045260246000fd5b6000610ba382610913565b9150610bae83610913565b9250828201905080821115610bc657610bc5610b69565b5b92915050565b7f5573657220646f6573206e6f74206861766520585020666f722074686973204e60008201527f4654000000000000000000000000000000000000000000000000000000000000602082015250565b6000610c28602283610aec565b9150610c3382610bcc565b604082019050919050565b60006020820190508181036000830152610c5781610c1b565b9050919050565b6000610c6982610913565b9150610c7483610913565b9250828203905081811115610c8c57610c8b610b69565b5b92915050565b6000604082019050610ca76000830185610ac2565b610cb460208301846109ec565b9392505050565b6000819050919050565b610cd6610cd182610913565b610cbb565b82525050565b6000610ce88285610cc5565b602082019150610cf88284610cc5565b6020820191508190509392505050565b7f4e487b7100000000000000000000000000000000000000000000000000000000600052601260045260246000fd5b6000610d4282610913565b9150610d4d83610913565b925082610d5d57610d5c610d08565b5b828206905092915050565b6000604082019050610d7d60008301856109ec565b610d8a60208301846109ec565b939250505056fea26469706673582212202306a0245d948abeaa06d45db1e83d76fc7244ae1461b33ce7d0e7b6e46441dd64736f6c63430008140033",
  "linkReferences": {},
  "deployedLinkReferences": {}
}