{
  "_format": "hh-sol-artifact-1",
  "contractName": "PenGuildPool",
  "sourceName": "contracts/PenGuildPool.sol",
  "abi": [
    {
      "inputs": [],
      "stateMutability": "nonpayable",
      "type": "constructor"
    },
    {
      "inputs": [
        {
          "internalType": "address",
          "name": "owner",
          "type": "address"
        }
      ],
      "name": "OwnableInvalidOwner",
      "type": "error"
    },
    {
      "inputs": [
        {
          "internalType": "address",
          "name": "account",
          "type": "address"
        }
      ],
      "name": "OwnableUnauthorizedAccount",
      "type": "error"
    },
    {
      "anonymous": false,
      "inputs": [
        {
          "indexed": false,
          "internalType": "address",
          "name": "from",
          "type": "address"
        },
        {
          "indexed": false,
          "internalType": "uint256",
          "name": "amount",
          "type": "uint256"
        }
      ],
      "name": "FundsReceived",
      "type": "event"
    },
    {
      "anonymous": false,
      "inputs": [
        {
          "indexed": false,
          "internalType": "address",
          "name": "to",
          "type": "address"
        },
        {
          "indexed": false,
          "internalType": "uint256",
          "name": "amount",
          "type": "uint256"
        }
      ],
      "name": "FundsWithdrawn",
      "type": "event"
    },
    {
      "anonymous": false,
      "inputs": [
        {
          "indexed": true,
          "internalType": "address",
          "name": "previousOwner",
          "type": "address"
        },
        {
          "indexed": true,
          "internalType": "address",
          "name": "newOwner",
          "type": "address"
        }
      ],
      "name": "OwnershipTransferred",
      "type": "event"
    },
    {
      "inputs": [],
      "name": "getBalance",
      "outputs": [
        {
          "internalType": "uint256",
          "name": "",
          "type": "uint256"
        }
      ],
      "stateMutability": "view",
      "type": "function"
    },
    {
      "inputs": [],
      "name": "owner",
      "outputs": [
        {
          "internalType": "address",
          "name": "",
          "type": "address"
        }
      ],
      "stateMutability": "view",
      "type": "function"
    },
    {
      "inputs": [],
      "name": "renounceOwnership",
      "outputs": [],
      "stateMutability": "nonpayable",
      "type": "function"
    },
    {
      "inputs": [
        {
          "internalType": "address",
          "name": "newOwner",
          "type": "address"
        }
      ],
      "name": "transferOwnership",
      "outputs": [],
      "stateMutability": "nonpayable",
      "type": "function"
    },
    {
      "inputs": [
        {
          "internalType": "uint256",
          "name": "amount",
          "type": "uint256"
        }
      ],
      "name": "withdrawFunds",
      "outputs": [],
      "stateMutability": "nonpayable",
      "type": "function"
    },
    {
      "stateMutability": "payable",
      "type": "receive"
    }
  ],
  "bytecode": "0x608060405234801561001057600080fd5b5033600073ffffffffffffffffffffffffffffffffffffffff168173ffffffffffffffffffffffffffffffffffffffff16036100845760006040517f1e4fbdf700000000000000000000000000000000000000000000000000000000815260040161007b919061019e565b60405180910390fd5b6100938161009960201b60201c565b506101b9565b60008060009054906101000a900473ffffffffffffffffffffffffffffffffffffffff169050816000806101000a81548173ffffffffffffffffffffffffffffffffffffffff021916908373ffffffffffffffffffffffffffffffffffffffff1602179055508173ffffffffffffffffffffffffffffffffffffffff168173ffffffffffffffffffffffffffffffffffffffff167f8be0079c531659141344cd1fd0a4f28419497f9722a3daafe3b4186f6b6457e060405160405180910390a35050565b600073ffffffffffffffffffffffffffffffffffffffff82169050919050565b60006101888261015d565b9050919050565b6101988161017d565b82525050565b60006020820190506101b3600083018461018f565b92915050565b61066f806101c86000396000f3fe60806040526004361061004e5760003560e01c806312065fe014610093578063155dd5ee146100be578063715018a6146100e75780638da5cb5b146100fe578063f2fde38b146101295761008e565b3661008e577f8e47b87b0ef542cdfa1659c551d88bad38aa7f452d2bbb349ab7530dfec8be8f33346040516100849291906104a6565b60405180910390a1005b600080fd5b34801561009f57600080fd5b506100a8610152565b6040516100b591906104cf565b60405180910390f35b3480156100ca57600080fd5b506100e560048036038101906100e0919061051b565b61015a565b005b3480156100f357600080fd5b506100fc610236565b005b34801561010a57600080fd5b5061011361024a565b6040516101209190610548565b60405180910390f35b34801561013557600080fd5b50610150600480360381019061014b919061058f565b610273565b005b600047905090565b6101626102f9565b804710156101a5576040517f08c379a000000000000000000000000000000000000000000000000000000000815260040161019c90610619565b60405180910390fd5b6101ad61024a565b73ffffffffffffffffffffffffffffffffffffffff166108fc829081150290604051600060405180830381858888f193505050501580156101f2573d6000803e3d6000fd5b507feaff4b37086828766ad3268786972c0cd24259d4c87a80f9d3963a3c3d999b0d61021c61024a565b8260405161022b9291906104a6565b60405180910390a150565b61023e6102f9565b6102486000610380565b565b60008060009054906101000a900473ffffffffffffffffffffffffffffffffffffffff16905090565b61027b6102f9565b600073ffffffffffffffffffffffffffffffffffffffff168173ffffffffffffffffffffffffffffffffffffffff16036102ed5760006040517f1e4fbdf70000000000000000000000000000000000000000000000000000000081526004016102e49190610548565b60405180910390fd5b6102f681610380565b50565b610301610444565b73ffffffffffffffffffffffffffffffffffffffff1661031f61024a565b73ffffffffffffffffffffffffffffffffffffffff161461037e57610342610444565b6040517f118cdaa70000000000000000000000000000000000000000000000000000000081526004016103759190610548565b60405180910390fd5b565b60008060009054906101000a900473ffffffffffffffffffffffffffffffffffffffff169050816000806101000a81548173ffffffffffffffffffffffffffffffffffffffff021916908373ffffffffffffffffffffffffffffffffffffffff1602179055508173ffffffffffffffffffffffffffffffffffffffff168173ffffffffffffffffffffffffffffffffffffffff167f8be0079c531659141344cd1fd0a4f28419497f9722a3daafe3b4186f6b6457e060405160405180910390a35050565b600033905090565b600073ffffffffffffffffffffffffffffffffffffffff82169050919050565b60006104778261044c565b9050919050565b6104878161046c565b82525050565b6000819050919050565b6104a08161048d565b82525050565b60006040820190506104bb600083018561047e565b6104c86020830184610497565b9392505050565b60006020820190506104e46000830184610497565b92915050565b600080fd5b6104f88161048d565b811461050357600080fd5b50565b600081359050610515816104ef565b92915050565b600060208284031215610531576105306104ea565b5b600061053f84828501610506565b91505092915050565b600060208201905061055d600083018461047e565b92915050565b61056c8161046c565b811461057757600080fd5b50565b60008135905061058981610563565b92915050565b6000602082840312156105a5576105a46104ea565b5b60006105b38482850161057a565b91505092915050565b600082825260208201905092915050565b7f496e73756666696369656e742062616c616e6365000000000000000000000000600082015250565b60006106036014836105bc565b915061060e826105cd565b602082019050919050565b60006020820190508181036000830152610632816105f6565b905091905056fea264697066735822122068275f245690c2de105448654a5cfdaadc54f6e219b1b70255ab5eae1093beb764736f6c63430008140033",
  "linkReferences": {},
  "deployedLinkReferences": {}
}