{
  "_format": "hh-sol-artifact-1",
  "contractName": "CreatorCollection",
  "sourceName": "contracts/CreatorCollection.sol",
  "abi": [
    {
      "inputs": [
        {
          "internalType": "string",
          "name": "_name",
          "type": "string"
        },
        {
          "internalType": "string",
          "name": "_description",
          "type": "string"
        },
        {
          "internalType": "uint256",
          "name": "_mintPrice",
          "type": "uint256"
        },
        {
          "internalType": "uint256",
          "name": "_maxSupply",
          "type": "uint256"
        },
        {
          "internalType": "address",
          "name": "_marketplace",
          "type": "address"
        }
      ],
      "stateMutability": "nonpayable",
      "type": "constructor"
    },
    {
      "inputs": [
        {
          "internalType": "address",
          "name": "owner",
          "type": "address"
        }
      ],
      "name": "OwnableInvalidOwner",
      "type": "error"
    },
    {
      "inputs": [
        {
          "internalType": "address",
          "name": "account",
          "type": "address"
        }
      ],
      "name": "OwnableUnauthorizedAccount",
      "type": "error"
    },
    {
      "anonymous": false,
      "inputs": [
        {
          "indexed": true,
          "internalType": "address",
          "name": "previousOwner",
          "type": "address"
        },
        {
          "indexed": true,
          "internalType": "address",
          "name": "newOwner",
          "type": "address"
        }
      ],
      "name": "OwnershipTransferred",
      "type": "event"
    },
    {
      "inputs": [],
      "name": "collectionInfo",
      "outputs": [
        {
          "internalType": "string",
          "name": "name",
          "type": "string"
        },
        {
          "internalType": "string",
          "name": "description",
          "type": "string"
        },
        {
          "internalType": "uint256",
          "name": "mintPrice",
          "type": "uint256"
        },
        {
          "internalType": "uint256",
          "name": "maxSupply",
          "type": "uint256"
        },
        {
          "internalType": "uint256",
          "name": "currentSupply",
          "type": "uint256"
        },
        {
          "internalType": "bool",
          "name": "isActive",
          "type": "bool"
        }
      ],
      "stateMutability": "view",
      "type": "function"
    },
    {
      "inputs": [
        {
          "internalType": "uint256",
          "name": "",
          "type": "uint256"
        }
      ],
      "name": "collections",
      "outputs": [
        {
          "internalType": "string",
          "name": "name",
          "type": "string"
        },
        {
          "internalType": "string",
          "name": "description",
          "type": "string"
        },
        {
          "internalType": "uint256",
          "name": "mintPrice",
          "type": "uint256"
        },
        {
          "internalType": "uint256",
          "name": "maxSupply",
          "type": "uint256"
        },
        {
          "internalType": "uint256",
          "name": "currentSupply",
          "type": "uint256"
        },
        {
          "internalType": "bool",
          "name": "isActive",
          "type": "bool"
        }
      ],
      "stateMutability": "view",
      "type": "function"
    },
    {
      "inputs": [
        {
          "internalType": "string",
          "name": "name",
          "type": "string"
        },
        {
          "internalType": "string",
          "name": "description",
          "type": "string"
        },
        {
          "internalType": "uint256",
          "name": "mintPrice",
          "type": "uint256"
        },
        {
          "internalType": "uint256",
          "name": "maxSupply",
          "type": "uint256"
        }
      ],
      "name": "createCollection",
      "outputs": [],
      "stateMutability": "nonpayable",
      "type": "function"
    },
    {
      "inputs": [],
      "name": "marketplace",
      "outputs": [
        {
          "internalType": "address",
          "name": "",
          "type": "address"
        }
      ],
      "stateMutability": "view",
      "type": "function"
    },
    {
      "inputs": [
        {
          "internalType": "uint256",
          "name": "collectionId",
          "type": "uint256"
        },
        {
          "internalType": "string",
          "name": "imageUrl",
          "type": "string"
        }
      ],
      "name": "mintFromCollection",
      "outputs": [],
      "stateMutability": "payable",
      "type": "function"
    },
    {
      "inputs": [],
      "name": "owner",
      "outputs": [
        {
          "internalType": "address",
          "name": "",
          "type": "address"
        }
      ],
      "stateMutability": "view",
      "type": "function"
    },
    {
      "inputs": [],
      "name": "renounceOwnership",
      "outputs": [],
      "stateMutability": "nonpayable",
      "type": "function"
    },
    {
      "inputs": [],
      "name": "toggleActive",
      "outputs": [],
      "stateMutability": "nonpayable",
      "type": "function"
    },
    {
      "inputs": [
        {
          "internalType": "address",
          "name": "newOwner",
          "type": "address"
        }
      ],
      "name": "transferOwnership",
      "outputs": [],
      "stateMutability": "nonpayable",
      "type": "function"
    },
    {
      "inputs": [
        {
          "internalType": "uint256",
          "name": "newPrice",
          "type": "uint256"
        }
      ],
      "name": "updateMintPrice",
      "outputs": [],
      "stateMutability": "nonpayable",
      "type": "function"
    }
  ],
  "bytecode": "0x60a06040523480156200001157600080fd5b506040516200225938038062002259833981810160405281019062000037919062000499565b33600073ffffffffffffffffffffffffffffffffffffffff168173ffffffffffffffffffffffffffffffffffffffff1603620000ad5760006040517f1e4fbdf7000000000000000000000000000000000000000000000000000000008152600401620000a4919062000570565b60405180910390fd5b620000be81620001a260201b60201c565b506040518060c00160405280868152602001858152602001848152602001838152602001600081526020016001151581525060016000820151816000019081620001099190620007ce565b506020820151816001019081620001219190620007ce565b5060408201518160020155606082015181600301556080820151816004015560a08201518160050160006101000a81548160ff0219169083151502179055509050508073ffffffffffffffffffffffffffffffffffffffff1660808173ffffffffffffffffffffffffffffffffffffffff16815250505050505050620008b5565b60008060009054906101000a900473ffffffffffffffffffffffffffffffffffffffff169050816000806101000a81548173ffffffffffffffffffffffffffffffffffffffff021916908373ffffffffffffffffffffffffffffffffffffffff1602179055508173ffffffffffffffffffffffffffffffffffffffff168173ffffffffffffffffffffffffffffffffffffffff167f8be0079c531659141344cd1fd0a4f28419497f9722a3daafe3b4186f6b6457e060405160405180910390a35050565b6000604051905090565b600080fd5b600080fd5b600080fd5b600080fd5b6000601f19601f8301169050919050565b7f4e487b7100000000000000000000000000000000000000000000000000000000600052604160045260246000fd5b620002cf8262000284565b810181811067ffffffffffffffff82111715620002f157620002f062000295565b5b80604052505050565b60006200030662000266565b9050620003148282620002c4565b919050565b600067ffffffffffffffff82111562000337576200033662000295565b5b620003428262000284565b9050602081019050919050565b60005b838110156200036f57808201518184015260208101905062000352565b60008484015250505050565b6000620003926200038c8462000319565b620002fa565b905082815260208101848484011115620003b157620003b06200027f565b5b620003be8482856200034f565b509392505050565b600082601f830112620003de57620003dd6200027a565b5b8151620003f08482602086016200037b565b91505092915050565b6000819050919050565b6200040e81620003f9565b81146200041a57600080fd5b50565b6000815190506200042e8162000403565b92915050565b600073ffffffffffffffffffffffffffffffffffffffff82169050919050565b6000620004618262000434565b9050919050565b620004738162000454565b81146200047f57600080fd5b50565b600081519050620004938162000468565b92915050565b600080600080600060a08688031215620004b857620004b762000270565b5b600086015167ffffffffffffffff811115620004d957620004d862000275565b5b620004e788828901620003c6565b955050602086015167ffffffffffffffff8111156200050b576200050a62000275565b5b6200051988828901620003c6565b94505060406200052c888289016200041d565b93505060606200053f888289016200041d565b9250506080620005528882890162000482565b9150509295509295909350565b6200056a8162000454565b82525050565b60006020820190506200058760008301846200055f565b92915050565b600081519050919050565b7f4e487b7100000000000000000000000000000000000000000000000000000000600052602260045260246000fd5b60006002820490506001821680620005e057607f821691505b602082108103620005f657620005f562000598565b5b50919050565b60008190508160005260206000209050919050565b60006020601f8301049050919050565b600082821b905092915050565b600060088302620006607fffffffffffffffffffffffffffffffffffffffffffffffffffffffffffffffff8262000621565b6200066c868362000621565b95508019841693508086168417925050509392505050565b6000819050919050565b6000620006af620006a9620006a384620003f9565b62000684565b620003f9565b9050919050565b6000819050919050565b620006cb836200068e565b620006e3620006da82620006b6565b8484546200062e565b825550505050565b600090565b620006fa620006eb565b62000707818484620006c0565b505050565b5b818110156200072f5762000723600082620006f0565b6001810190506200070d565b5050565b601f8211156200077e576200074881620005fc565b620007538462000611565b8101602085101562000763578190505b6200077b620007728562000611565b8301826200070c565b50505b505050565b600082821c905092915050565b6000620007a36000198460080262000783565b1980831691505092915050565b6000620007be838362000790565b9150826002028217905092915050565b620007d9826200058d565b67ffffffffffffffff811115620007f557620007f462000295565b5b620008018254620005c7565b6200080e82828562000733565b600060209050601f83116001811462000846576000841562000831578287015190505b6200083d8582620007b0565b865550620008ad565b601f1984166200085686620005fc565b60005b82811015620008805784890151825560018201915060208501945060208101905062000859565b86831015620008a057848901516200089c601f89168262000790565b8355505b6001600288020188555050505b505050505050565b60805161197a620008df600039600081816102b001528181610543015261073e015261197a6000f3fe6080604052600436106100905760003560e01c8063b79bef4a11610059578063b79bef4a14610142578063eb357e801461016b578063f2fde38b14610187578063fdbda0ec146101b0578063fdd173b4146101f257610090565b8062728e461461009557806329c68dc1146100be578063715018a6146100d55780638da5cb5b146100ec578063abc8c7af14610117575b600080fd5b3480156100a157600080fd5b506100bc60048036038101906100b79190610cb2565b610222565b005b3480156100ca57600080fd5b506100d3610237565b005b3480156100e157600080fd5b506100ea610271565b005b3480156100f857600080fd5b50610101610285565b60405161010e9190610d20565b60405180910390f35b34801561012357600080fd5b5061012c6102ae565b6040516101399190610d20565b60405180910390f35b34801561014e57600080fd5b5061016960048036038101906101649190610e81565b6102d2565b005b61018560048036038101906101809190610f20565b610429565b005b34801561019357600080fd5b506101ae60048036038101906101a99190610fa8565b6107ef565b005b3480156101bc57600080fd5b506101d760048036038101906101d29190610cb2565b610875565b6040516101e99695949392919061107e565b60405180910390f35b3480156101fe57600080fd5b506102076109ce565b6040516102199695949392919061107e565b60405180910390f35b61022a610b15565b8060016002018190555050565b61023f610b15565b600160050160009054906101000a900460ff1615600160050160006101000a81548160ff021916908315150217905550565b610279610b15565b6102836000610b9c565b565b60008060009054906101000a900473ffffffffffffffffffffffffffffffffffffffff16905090565b7f000000000000000000000000000000000000000000000000000000000000000081565b60008211610315576040517f08c379a000000000000000000000000000000000000000000000000000000000815260040161030c9061115f565b60405180910390fd5b60008111610358576040517f08c379a000000000000000000000000000000000000000000000000000000000815260040161034f906111f1565b60405180910390fd5b6008600081548092919061036b90611240565b91905055506040518060c00160405280858152602001848152602001838152602001828152602001600081526020016001151581525060076000600854815260200190815260200160002060008201518160000190816103cb9190611494565b5060208201518160010190816103e19190611494565b5060408201518160020155606082015181600301556080820151816004015560a08201518160050160006101000a81548160ff02191690831515021790555090505050505050565b60006007600084815260200190815260200160002090508060050160009054906101000a900460ff16610491576040517f08c379a0000000000000000000000000000000000000000000000000000000008152600401610488906115b2565b60405180910390fd5b80600301548160040154106104db576040517f08c379a00000000000000000000000000000000000000000000000000000000081526004016104d29061161e565b60405180910390fd5b8060020154341015610522576040517f08c379a00000000000000000000000000000000000000000000000000000000081526004016105199061168a565b60405180910390fd5b60006064600a3461053391906116aa565b61053d919061171b565b905060007f000000000000000000000000000000000000000000000000000000000000000073ffffffffffffffffffffffffffffffffffffffff166346edcd526040518163ffffffff1660e01b8152600401602060405180830381865afa1580156105ac573d6000803e3d6000fd5b505050506040513d601f19601f820116820180604052508101906105d09190611761565b905060008173ffffffffffffffffffffffffffffffffffffffff16836040516105f8906117bf565b60006040518083038185875af1925050503d8060008114610635576040519150601f19603f3d011682016040523d82523d6000602084013e61063a565b606091505b505090508061067e576040517f08c379a000000000000000000000000000000000000000000000000000000000815260040161067590611820565b60405180910390fd5b610686610285565b73ffffffffffffffffffffffffffffffffffffffff1683346106a89190611840565b6040516106b4906117bf565b60006040518083038185875af1925050503d80600081146106f1576040519150601f19603f3d011682016040523d82523d6000602084013e6106f6565b606091505b5050809150508061073c576040517f08c379a0000000000000000000000000000000000000000000000000000000008152600401610733906118e6565b60405180910390fd5b7f000000000000000000000000000000000000000000000000000000000000000073ffffffffffffffffffffffffffffffffffffffff16631e57691260003389896040518563ffffffff1660e01b815260040161079b93929190611906565b6000604051808303818588803b1580156107b457600080fd5b505af11580156107c8573d6000803e3d6000fd5b50505050508360040160008154809291906107e290611240565b9190505550505050505050565b6107f7610b15565b600073ffffffffffffffffffffffffffffffffffffffff168173ffffffffffffffffffffffffffffffffffffffff16036108695760006040517f1e4fbdf70000000000000000000000000000000000000000000000000000000081526004016108609190610d20565b60405180910390fd5b61087281610b9c565b50565b6007602052806000526040600020600091509050806000018054610898906112b7565b80601f01602080910402602001604051908101604052809291908181526020018280546108c4906112b7565b80156109115780601f106108e657610100808354040283529160200191610911565b820191906000526020600020905b8154815290600101906020018083116108f457829003601f168201915b505050505090806001018054610926906112b7565b80601f0160208091040260200160405190810160405280929190818152602001828054610952906112b7565b801561099f5780601f106109745761010080835404028352916020019161099f565b820191906000526020600020905b81548152906001019060200180831161098257829003601f168201915b5050505050908060020154908060030154908060040154908060050160009054906101000a900460ff16905086565b60018060000180546109df906112b7565b80601f0160208091040260200160405190810160405280929190818152602001828054610a0b906112b7565b8015610a585780601f10610a2d57610100808354040283529160200191610a58565b820191906000526020600020905b815481529060010190602001808311610a3b57829003601f168201915b505050505090806001018054610a6d906112b7565b80601f0160208091040260200160405190810160405280929190818152602001828054610a99906112b7565b8015610ae65780601f10610abb57610100808354040283529160200191610ae6565b820191906000526020600020905b815481529060010190602001808311610ac957829003601f168201915b5050505050908060020154908060030154908060040154908060050160009054906101000a900460ff16905086565b610b1d610c60565b73ffffffffffffffffffffffffffffffffffffffff16610b3b610285565b73ffffffffffffffffffffffffffffffffffffffff1614610b9a57610b5e610c60565b6040517f118cdaa7000000000000000000000000000000000000000000000000000000008152600401610b919190610d20565b60405180910390fd5b565b60008060009054906101000a900473ffffffffffffffffffffffffffffffffffffffff169050816000806101000a81548173ffffffffffffffffffffffffffffffffffffffff021916908373ffffffffffffffffffffffffffffffffffffffff1602179055508173ffffffffffffffffffffffffffffffffffffffff168173ffffffffffffffffffffffffffffffffffffffff167f8be0079c531659141344cd1fd0a4f28419497f9722a3daafe3b4186f6b6457e060405160405180910390a35050565b600033905090565b6000604051905090565b600080fd5b600080fd5b6000819050919050565b610c8f81610c7c565b8114610c9a57600080fd5b50565b600081359050610cac81610c86565b92915050565b600060208284031215610cc857610cc7610c72565b5b6000610cd684828501610c9d565b91505092915050565b600073ffffffffffffffffffffffffffffffffffffffff82169050919050565b6000610d0a82610cdf565b9050919050565b610d1a81610cff565b82525050565b6000602082019050610d356000830184610d11565b92915050565b600080fd5b600080fd5b6000601f19601f8301169050919050565b7f4e487b7100000000000000000000000000000000000000000000000000000000600052604160045260246000fd5b610d8e82610d45565b810181811067ffffffffffffffff82111715610dad57610dac610d56565b5b80604052505050565b6000610dc0610c68565b9050610dcc8282610d85565b919050565b600067ffffffffffffffff821115610dec57610deb610d56565b5b610df582610d45565b9050602081019050919050565b82818337600083830152505050565b6000610e24610e1f84610dd1565b610db6565b905082815260208101848484011115610e4057610e3f610d40565b5b610e4b848285610e02565b509392505050565b600082601f830112610e6857610e67610d3b565b5b8135610e78848260208601610e11565b91505092915050565b60008060008060808587031215610e9b57610e9a610c72565b5b600085013567ffffffffffffffff811115610eb957610eb8610c77565b5b610ec587828801610e53565b945050602085013567ffffffffffffffff811115610ee657610ee5610c77565b5b610ef287828801610e53565b9350506040610f0387828801610c9d565b9250506060610f1487828801610c9d565b91505092959194509250565b60008060408385031215610f3757610f36610c72565b5b6000610f4585828601610c9d565b925050602083013567ffffffffffffffff811115610f6657610f65610c77565b5b610f7285828601610e53565b9150509250929050565b610f8581610cff565b8114610f9057600080fd5b50565b600081359050610fa281610f7c565b92915050565b600060208284031215610fbe57610fbd610c72565b5b6000610fcc84828501610f93565b91505092915050565b600081519050919050565b600082825260208201905092915050565b60005b8381101561100f578082015181840152602081019050610ff4565b60008484015250505050565b600061102682610fd5565b6110308185610fe0565b9350611040818560208601610ff1565b61104981610d45565b840191505092915050565b61105d81610c7c565b82525050565b60008115159050919050565b61107881611063565b82525050565b600060c0820190508181036000830152611098818961101b565b905081810360208301526110ac818861101b565b90506110bb6040830187611054565b6110c86060830186611054565b6110d56080830185611054565b6110e260a083018461106f565b979650505050505050565b7f4d696e74207072696365206d7573742062652067726561746572207468616e2060008201527f3000000000000000000000000000000000000000000000000000000000000000602082015250565b6000611149602183610fe0565b9150611154826110ed565b604082019050919050565b600060208201905081810360008301526111788161113c565b9050919050565b7f4d617820737570706c79206d7573742062652067726561746572207468616e2060008201527f3000000000000000000000000000000000000000000000000000000000000000602082015250565b60006111db602183610fe0565b91506111e68261117f565b604082019050919050565b6000602082019050818103600083015261120a816111ce565b9050919050565b7f4e487b7100000000000000000000000000000000000000000000000000000000600052601160045260246000fd5b600061124b82610c7c565b91507fffffffffffffffffffffffffffffffffffffffffffffffffffffffffffffffff820361127d5761127c611211565b5b600182019050919050565b7f4e487b7100000000000000000000000000000000000000000000000000000000600052602260045260246000fd5b600060028204905060018216806112cf57607f821691505b6020821081036112e2576112e1611288565b5b50919050565b60008190508160005260206000209050919050565b60006020601f8301049050919050565b600082821b905092915050565b60006008830261134a7fffffffffffffffffffffffffffffffffffffffffffffffffffffffffffffffff8261130d565b611354868361130d565b95508019841693508086168417925050509392505050565b6000819050919050565b600061139161138c61138784610c7c565b61136c565b610c7c565b9050919050565b6000819050919050565b6113ab83611376565b6113bf6113b782611398565b84845461131a565b825550505050565b600090565b6113d46113c7565b6113df8184846113a2565b505050565b5b81811015611403576113f86000826113cc565b6001810190506113e5565b5050565b601f82111561144857611419816112e8565b611422846112fd565b81016020851015611431578190505b61144561143d856112fd565b8301826113e4565b50505b505050565b600082821c905092915050565b600061146b6000198460080261144d565b1980831691505092915050565b6000611484838361145a565b9150826002028217905092915050565b61149d82610fd5565b67ffffffffffffffff8111156114b6576114b5610d56565b5b6114c082546112b7565b6114cb828285611407565b600060209050601f8311600181146114fe57600084156114ec578287015190505b6114f68582611478565b86555061155e565b601f19841661150c866112e8565b60005b828110156115345784890151825560018201915060208501945060208101905061150f565b86831015611551578489015161154d601f89168261145a565b8355505b6001600288020188555050505b505050505050565b7f436f6c6c656374696f6e206973206e6f74206163746976650000000000000000600082015250565b600061159c601883610fe0565b91506115a782611566565b602082019050919050565b600060208201905081810360008301526115cb8161158f565b9050919050565b7f436f6c6c656374696f6e20697320736f6c64206f757400000000000000000000600082015250565b6000611608601683610fe0565b9150611613826115d2565b602082019050919050565b60006020820190508181036000830152611637816115fb565b9050919050565b7f496e73756666696369656e74207061796d656e74000000000000000000000000600082015250565b6000611674601483610fe0565b915061167f8261163e565b602082019050919050565b600060208201905081810360008301526116a381611667565b9050919050565b60006116b582610c7c565b91506116c083610c7c565b92508282026116ce81610c7c565b915082820484148315176116e5576116e4611211565b5b5092915050565b7f4e487b7100000000000000000000000000000000000000000000000000000000600052601260045260246000fd5b600061172682610c7c565b915061173183610c7c565b925082611741576117406116ec565b5b828204905092915050565b60008151905061175b81610f7c565b92915050565b60006020828403121561177757611776610c72565b5b60006117858482850161174c565b91505092915050565b600081905092915050565b50565b60006117a960008361178e565b91506117b482611799565b600082019050919050565b60006117ca8261179c565b9150819050919050565b7f4661696c656420746f2073656e6420706c6174666f726d206665650000000000600082015250565b600061180a601b83610fe0565b9150611815826117d4565b602082019050919050565b60006020820190508181036000830152611839816117fd565b9050919050565b600061184b82610c7c565b915061185683610c7c565b925082820390508181111561186e5761186d611211565b5b92915050565b7f4661696c656420746f2073656e64207061796d656e7420746f2063726561746f60008201527f7200000000000000000000000000000000000000000000000000000000000000602082015250565b60006118d0602183610fe0565b91506118db82611874565b604082019050919050565b600060208201905081810360008301526118ff816118c3565b9050919050565b600060608201905061191b6000830186610d11565b6119286020830185611054565b818103604083015261193a818461101b565b905094935050505056fea26469706673582212202ec1507a43676b2003f62e30ac684a1941b316378f5afa52034927f740e10b5f64736f6c63430008140033",
  "linkReferences": {},
  "deployedLinkReferences": {}
}