{
  "_format": "hh-sol-artifact-1",
  "contractName": "NFTMarketplace",
  "sourceName": "contracts/NFTMarketplace.sol",
  "abi": [
    {
      "inputs": [
        {
          "internalType": "address",
          "name": "_penGuildPool",
          "type": "address"
        },
        {
          "internalType": "address",
          "name": "_xpSystem",
          "type": "address"
        }
      ],
      "stateMutability": "nonpayable",
      "type": "constructor"
    },
    {
      "inputs": [
        {
          "internalType": "address",
          "name": "sender",
          "type": "address"
        },
        {
          "internalType": "uint256",
          "name": "tokenId",
          "type": "uint256"
        },
        {
          "internalType": "address",
          "name": "owner",
          "type": "address"
        }
      ],
      "name": "ERC721IncorrectOwner",
      "type": "error"
    },
    {
      "inputs": [
        {
          "internalType": "address",
          "name": "operator",
          "type": "address"
        },
        {
          "internalType": "uint256",
          "name": "tokenId",
          "type": "uint256"
        }
      ],
      "name": "ERC721InsufficientApproval",
      "type": "error"
    },
    {
      "inputs": [
        {
          "internalType": "address",
          "name": "approver",
          "type": "address"
        }
      ],
      "name": "ERC721InvalidApprover",
      "type": "error"
    },
    {
      "inputs": [
        {
          "internalType": "address",
          "name": "operator",
          "type": "address"
        }
      ],
      "name": "ERC721InvalidOperator",
      "type": "error"
    },
    {
      "inputs": [
        {
          "internalType": "address",
          "name": "owner",
          "type": "address"
        }
      ],
      "name": "ERC721InvalidOwner",
      "type": "error"
    },
    {
      "inputs": [
        {
          "internalType": "address",
          "name": "receiver",
          "type": "address"
        }
      ],
      "name": "ERC721InvalidReceiver",
      "type": "error"
    },
    {
      "inputs": [
        {
          "internalType": "address",
          "name": "sender",
          "type": "address"
        }
      ],
      "name": "ERC721InvalidSender",
      "type": "error"
    },
    {
      "inputs": [
        {
          "internalType": "uint256",
          "name": "tokenId",
          "type": "uint256"
        }
      ],
      "name": "ERC721NonexistentToken",
      "type": "error"
    },
    {
      "inputs": [
        {
          "internalType": "address",
          "name": "owner",
          "type": "address"
        }
      ],
      "name": "OwnableInvalidOwner",
      "type": "error"
    },
    {
      "inputs": [
        {
          "internalType": "address",
          "name": "account",
          "type": "address"
        }
      ],
      "name": "OwnableUnauthorizedAccount",
      "type": "error"
    },
    {
      "anonymous": false,
      "inputs": [
        {
          "indexed": true,
          "internalType": "address",
          "name": "owner",
          "type": "address"
        },
        {
          "indexed": true,
          "internalType": "address",
          "name": "approved",
          "type": "address"
        },
        {
          "indexed": true,
          "internalType": "uint256",
          "name": "tokenId",
          "type": "uint256"
        }
      ],
      "name": "Approval",
      "type": "event"
    },
    {
      "anonymous": false,
      "inputs": [
        {
          "indexed": true,
          "internalType": "address",
          "name": "owner",
          "type": "address"
        },
        {
          "indexed": true,
          "internalType": "address",
          "name": "operator",
          "type": "address"
        },
        {
          "indexed": false,
          "internalType": "bool",
          "name": "approved",
          "type": "bool"
        }
      ],
      "name": "ApprovalForAll",
      "type": "event"
    },
    {
      "anonymous": false,
      "inputs": [
        {
          "indexed": false,
          "internalType": "uint256",
          "name": "_fromTokenId",
          "type": "uint256"
        },
        {
          "indexed": false,
          "internalType": "uint256",
          "name": "_toTokenId",
          "type": "uint256"
        }
      ],
      "name": "BatchMetadataUpdate",
      "type": "event"
    },
    {
      "anonymous": false,
      "inputs": [
        {
          "indexed": false,
          "internalType": "uint256",
          "name": "collectionId",
          "type": "uint256"
        },
        {
          "indexed": false,
          "internalType": "address",
          "name": "collection",
          "type": "address"
        }
      ],
      "name": "CollectionRegistered",
      "type": "event"
    },
    {
      "anonymous": false,
      "inputs": [
        {
          "indexed": false,
          "internalType": "uint256",
          "name": "_tokenId",
          "type": "uint256"
        }
      ],
      "name": "MetadataUpdate",
      "type": "event"
    },
    {
      "anonymous": false,
      "inputs": [
        {
          "indexed": false,
          "internalType": "uint256",
          "name": "tokenId",
          "type": "uint256"
        },
        {
          "indexed": false,
          "internalType": "uint256",
          "name": "price",
          "type": "uint256"
        }
      ],
      "name": "NFTListed",
      "type": "event"
    },
    {
      "anonymous": false,
      "inputs": [
        {
          "indexed": false,
          "internalType": "uint256",
          "name": "tokenId",
          "type": "uint256"
        },
        {
          "indexed": false,
          "internalType": "address",
          "name": "creator",
          "type": "address"
        },
        {
          "indexed": false,
          "internalType": "uint256",
          "name": "xpPoints",
          "type": "uint256"
        },
        {
          "indexed": false,
          "internalType": "string",
          "name": "imageUrl",
          "type": "string"
        }
      ],
      "name": "NFTMinted",
      "type": "event"
    },
    {
      "anonymous": false,
      "inputs": [
        {
          "indexed": false,
          "internalType": "uint256",
          "name": "tokenId",
          "type": "uint256"
        },
        {
          "indexed": false,
          "internalType": "address",
          "name": "seller",
          "type": "address"
        },
        {
          "indexed": false,
          "internalType": "address",
          "name": "buyer",
          "type": "address"
        },
        {
          "indexed": false,
          "internalType": "uint256",
          "name": "price",
          "type": "uint256"
        }
      ],
      "name": "NFTSold",
      "type": "event"
    },
    {
      "anonymous": false,
      "inputs": [
        {
          "indexed": true,
          "internalType": "address",
          "name": "previousOwner",
          "type": "address"
        },
        {
          "indexed": true,
          "internalType": "address",
          "name": "newOwner",
          "type": "address"
        }
      ],
      "name": "OwnershipTransferred",
      "type": "event"
    },
    {
      "anonymous": false,
      "inputs": [
        {
          "indexed": true,
          "internalType": "address",
          "name": "from",
          "type": "address"
        },
        {
          "indexed": true,
          "internalType": "address",
          "name": "to",
          "type": "address"
        },
        {
          "indexed": true,
          "internalType": "uint256",
          "name": "tokenId",
          "type": "uint256"
        }
      ],
      "name": "Transfer",
      "type": "event"
    },
    {
      "inputs": [],
      "name": "PLATFORM_FEE_PERCENTAGE",
      "outputs": [
        {
          "internalType": "uint256",
          "name": "",
          "type": "uint256"
        }
      ],
      "stateMutability": "view",
      "type": "function"
    },
    {
      "inputs": [
        {
          "internalType": "address",
          "name": "to",
          "type": "address"
        },
        {
          "internalType": "uint256",
          "name": "tokenId",
          "type": "uint256"
        }
      ],
      "name": "approve",
      "outputs": [],
      "stateMutability": "nonpayable",
      "type": "function"
    },
    {
      "inputs": [
        {
          "internalType": "address",
          "name": "owner",
          "type": "address"
        }
      ],
      "name": "balanceOf",
      "outputs": [
        {
          "internalType": "uint256",
          "name": "",
          "type": "uint256"
        }
      ],
      "stateMutability": "view",
      "type": "function"
    },
    {
      "inputs": [
        {
          "internalType": "uint256",
          "name": "tokenId",
          "type": "uint256"
        }
      ],
      "name": "buyNFT",
      "outputs": [],
      "stateMutability": "payable",
      "type": "function"
    },
    {
      "inputs": [
        {
          "internalType": "uint256",
          "name": "",
          "type": "uint256"
        }
      ],
      "name": "collections",
      "outputs": [
        {
          "internalType": "address",
          "name": "",
          "type": "address"
        }
      ],
      "stateMutability": "view",
      "type": "function"
    },
    {
      "inputs": [
        {
          "internalType": "uint256",
          "name": "tokenId",
          "type": "uint256"
        }
      ],
      "name": "getApproved",
      "outputs": [
        {
          "internalType": "address",
          "name": "",
          "type": "address"
        }
      ],
      "stateMutability": "view",
      "type": "function"
    },
    {
      "inputs": [
        {
          "internalType": "uint256",
          "name": "limit",
          "type": "uint256"
        }
      ],
      "name": "getLeaderboard",
      "outputs": [
        {
          "components": [
            {
              "internalType": "address",
              "name": "user",
              "type": "address"
            },
            {
              "internalType": "uint256",
              "name": "xp",
              "type": "uint256"
            }
          ],
          "internalType": "struct NFTMarketplace.LeaderboardEntry[]",
          "name": "",
          "type": "tuple[]"
        }
      ],
      "stateMutability": "view",
      "type": "function"
    },
    {
      "inputs": [],
      "name": "getListedNFTs",
      "outputs": [
        {
          "components": [
            {
              "internalType": "uint256",
              "name": "tokenId",
              "type": "uint256"
            },
            {
              "internalType": "address",
              "name": "creator",
              "type": "address"
            },
            {
              "internalType": "uint256",
              "name": "xpPoints",
              "type": "uint256"
            },
            {
              "internalType": "uint256",
              "name": "mintPrice",
              "type": "uint256"
            },
            {
              "internalType": "bool",
              "name": "isListed",
              "type": "bool"
            },
            {
              "internalType": "uint256",
              "name": "listingPrice",
              "type": "uint256"
            },
            {
              "internalType": "string",
              "name": "imageUrl",
              "type": "string"
            }
          ],
          "internalType": "struct NFTMarketplace.NFTDetails[]",
          "name": "",
          "type": "tuple[]"
        }
      ],
      "stateMutability": "view",
      "type": "function"
    },
    {
      "inputs": [],
      "name": "getTokenId",
      "outputs": [
        {
          "internalType": "uint256",
          "name": "",
          "type": "uint256"
        }
      ],
      "stateMutability": "view",
      "type": "function"
    },
    {
      "inputs": [
        {
          "internalType": "address",
          "name": "owner",
          "type": "address"
        },
        {
          "internalType": "address",
          "name": "operator",
          "type": "address"
        }
      ],
      "name": "isApprovedForAll",
      "outputs": [
        {
          "internalType": "bool",
          "name": "",
          "type": "bool"
        }
      ],
      "stateMutability": "view",
      "type": "function"
    },
    {
      "inputs": [
        {
          "internalType": "uint256",
          "name": "tokenId",
          "type": "uint256"
        },
        {
          "internalType": "uint256",
          "name": "price",
          "type": "uint256"
        }
      ],
      "name": "listNFTForSale",
      "outputs": [],
      "stateMutability": "nonpayable",
      "type": "function"
    },
    {
      "inputs": [
        {
          "internalType": "address",
          "name": "to",
          "type": "address"
        },
        {
          "internalType": "uint256",
          "name": "collectionId",
          "type": "uint256"
        },
        {
          "internalType": "string",
          "name": "imageUrl",
          "type": "string"
        }
      ],
      "name": "mintNFT",
      "outputs": [],
      "stateMutability": "payable",
      "type": "function"
    },
    {
      "inputs": [],
      "name": "name",
      "outputs": [
        {
          "internalType": "string",
          "name": "",
          "type": "string"
        }
      ],
      "stateMutability": "view",
      "type": "function"
    },
    {
      "inputs": [
        {
          "internalType": "uint256",
          "name": "",
          "type": "uint256"
        }
      ],
      "name": "nftDetails",
      "outputs": [
        {
          "internalType": "uint256",
          "name": "tokenId",
          "type": "uint256"
        },
        {
          "internalType": "address",
          "name": "creator",
          "type": "address"
        },
        {
          "internalType": "uint256",
          "name": "xpPoints",
          "type": "uint256"
        },
        {
          "internalType": "uint256",
          "name": "mintPrice",
          "type": "uint256"
        },
        {
          "internalType": "bool",
          "name": "isListed",
          "type": "bool"
        },
        {
          "internalType": "uint256",
          "name": "listingPrice",
          "type": "uint256"
        },
        {
          "internalType": "string",
          "name": "imageUrl",
          "type": "string"
        }
      ],
      "stateMutability": "view",
      "type": "function"
    },
    {
      "inputs": [],
      "name": "owner",
      "outputs": [
        {
          "internalType": "address",
          "name": "",
          "type": "address"
        }
      ],
      "stateMutability": "view",
      "type": "function"
    },
    {
      "inputs": [
        {
          "internalType": "uint256",
          "name": "tokenId",
          "type": "uint256"
        }
      ],
      "name": "ownerOf",
      "outputs": [
        {
          "internalType": "address",
          "name": "",
          "type": "address"
        }
      ],
      "stateMutability": "view",
      "type": "function"
    },
    {
      "inputs": [],
      "name": "penGuildPool",
      "outputs": [
        {
          "internalType": "address",
          "name": "",
          "type": "address"
        }
      ],
      "stateMutability": "view",
      "type": "function"
    },
    {
      "inputs": [
        {
          "internalType": "address",
          "name": "collectionAddress",
          "type": "address"
        }
      ],
      "name": "registerCollection",
      "outputs": [
        {
          "internalType": "uint256",
          "name": "",
          "type": "uint256"
        }
      ],
      "stateMutability": "nonpayable",
      "type": "function"
    },
    {
      "inputs": [],
      "name": "renounceOwnership",
      "outputs": [],
      "stateMutability": "nonpayable",
      "type": "function"
    },
    {
      "inputs": [
        {
          "internalType": "address",
          "name": "from",
          "type": "address"
        },
        {
          "internalType": "address",
          "name": "to",
          "type": "address"
        },
        {
          "internalType": "uint256",
          "name": "tokenId",
          "type": "uint256"
        }
      ],
      "name": "safeTransferFrom",
      "outputs": [],
      "stateMutability": "nonpayable",
      "type": "function"
    },
    {
      "inputs": [
        {
          "internalType": "address",
          "name": "from",
          "type": "address"
        },
        {
          "internalType": "address",
          "name": "to",
          "type": "address"
        },
        {
          "internalType": "uint256",
          "name": "tokenId",
          "type": "uint256"
        },
        {
          "internalType": "bytes",
          "name": "data",
          "type": "bytes"
        }
      ],
      "name": "safeTransferFrom",
      "outputs": [],
      "stateMutability": "nonpayable",
      "type": "function"
    },
    {
      "inputs": [
        {
          "internalType": "address",
          "name": "operator",
          "type": "address"
        },
        {
          "internalType": "bool",
          "name": "approved",
          "type": "bool"
        }
      ],
      "name": "setApprovalForAll",
      "outputs": [],
      "stateMutability": "nonpayable",
      "type": "function"
    },
    {
      "inputs": [
        {
          "internalType": "bytes4",
          "name": "interfaceId",
          "type": "bytes4"
        }
      ],
      "name": "supportsInterface",
      "outputs": [
        {
          "internalType": "bool",
          "name": "",
          "type": "bool"
        }
      ],
      "stateMutability": "view",
      "type": "function"
    },
    {
      "inputs": [],
      "name": "symbol",
      "outputs": [
        {
          "internalType": "string",
          "name": "",
          "type": "string"
        }
      ],
      "stateMutability": "view",
      "type": "function"
    },
    {
      "inputs": [
        {
          "internalType": "uint256",
          "name": "tokenId",
          "type": "uint256"
        }
      ],
      "name": "tokenURI",
      "outputs": [
        {
          "internalType": "string",
          "name": "",
          "type": "string"
        }
      ],
      "stateMutability": "view",
      "type": "function"
    },
    {
      "inputs": [
        {
          "internalType": "address",
          "name": "from",
          "type": "address"
        },
        {
          "internalType": "address",
          "name": "to",
          "type": "address"
        },
        {
          "internalType": "uint256",
          "name": "tokenId",
          "type": "uint256"
        }
      ],
      "name": "transferFrom",
      "outputs": [],
      "stateMutability": "nonpayable",
      "type": "function"
    },
    {
      "inputs": [
        {
          "internalType": "address",
          "name": "newOwner",
          "type": "address"
        }
      ],
      "name": "transferOwnership",
      "outputs": [],
      "stateMutability": "nonpayable",
      "type": "function"
    },
    {
      "inputs": [
        {
          "internalType": "address",
          "name": "",
          "type": "address"
        }
      ],
      "name": "userTotalXP",
      "outputs": [
        {
          "internalType": "uint256",
          "name": "",
          "type": "uint256"
        }
      ],
      "stateMutability": "view",
      "type": "function"
    },
    {
      "inputs": [],
      "name": "xpSystemAddress",
      "outputs": [
        {
          "internalType": "address",
          "name": "",
          "type": "address"
        }
      ],
      "stateMutability": "view",
      "type": "function"
    }
  ],
  "bytecode": "0x60c06040523480156200001157600080fd5b5060405162004e7738038062004e778339818101604052810190620000379190620002f1565b336040518060400160405280600c81526020017f50656e4775696c64204e465400000000000000000000000000000000000000008152506040518060400160405280600581526020017f50474e46540000000000000000000000000000000000000000000000000000008152508160009081620000b59190620005b2565b508060019081620000c79190620005b2565b505050600073ffffffffffffffffffffffffffffffffffffffff168173ffffffffffffffffffffffffffffffffffffffff16036200013f5760006040517f1e4fbdf7000000000000000000000000000000000000000000000000000000008152600401620001369190620006aa565b60405180910390fd5b6200015081620001c160201b60201c565b508173ffffffffffffffffffffffffffffffffffffffff1660808173ffffffffffffffffffffffffffffffffffffffff16815250508073ffffffffffffffffffffffffffffffffffffffff1660a08173ffffffffffffffffffffffffffffffffffffffff16815250505050620006c7565b6000600760009054906101000a900473ffffffffffffffffffffffffffffffffffffffff16905081600760006101000a81548173ffffffffffffffffffffffffffffffffffffffff021916908373ffffffffffffffffffffffffffffffffffffffff1602179055508173ffffffffffffffffffffffffffffffffffffffff168173ffffffffffffffffffffffffffffffffffffffff167f8be0079c531659141344cd1fd0a4f28419497f9722a3daafe3b4186f6b6457e060405160405180910390a35050565b600080fd5b600073ffffffffffffffffffffffffffffffffffffffff82169050919050565b6000620002b9826200028c565b9050919050565b620002cb81620002ac565b8114620002d757600080fd5b50565b600081519050620002eb81620002c0565b92915050565b600080604083850312156200030b576200030a62000287565b5b60006200031b85828601620002da565b92505060206200032e85828601620002da565b9150509250929050565b600081519050919050565b7f4e487b7100000000000000000000000000000000000000000000000000000000600052604160045260246000fd5b7f4e487b7100000000000000000000000000000000000000000000000000000000600052602260045260246000fd5b60006002820490506001821680620003ba57607f821691505b602082108103620003d057620003cf62000372565b5b50919050565b60008190508160005260206000209050919050565b60006020601f8301049050919050565b600082821b905092915050565b6000600883026200043a7fffffffffffffffffffffffffffffffffffffffffffffffffffffffffffffffff82620003fb565b620004468683620003fb565b95508019841693508086168417925050509392505050565b6000819050919050565b6000819050919050565b6000620004936200048d62000487846200045e565b62000468565b6200045e565b9050919050565b6000819050919050565b620004af8362000472565b620004c7620004be826200049a565b84845462000408565b825550505050565b600090565b620004de620004cf565b620004eb818484620004a4565b505050565b5b81811015620005135762000507600082620004d4565b600181019050620004f1565b5050565b601f82111562000562576200052c81620003d6565b6200053784620003eb565b8101602085101562000547578190505b6200055f6200055685620003eb565b830182620004f0565b50505b505050565b600082821c905092915050565b6000620005876000198460080262000567565b1980831691505092915050565b6000620005a2838362000574565b9150826002028217905092915050565b620005bd8262000338565b67ffffffffffffffff811115620005d957620005d862000343565b5b620005e58254620003a1565b620005f282828562000517565b600060209050601f8311600181146200062a576000841562000615578287015190505b62000621858262000594565b86555062000691565b601f1984166200063a86620003d6565b60005b8281101562000664578489015182556001820191506020850194506020810190506200063d565b8683101562000684578489015162000680601f89168262000574565b8355505b6001600288020188555050505b505050505050565b620006a481620002ac565b82525050565b6000602082019050620006c1600083018462000699565b92915050565b60805160a0516147676200071060003960008181610ba501528181610c43015281816111b6015281816112460152611e010152600081816110c9015261131001526147676000f3fe6080604052600436106101c25760003560e01c806370a08231116100f7578063b2733b3911610095578063e985e9c511610064578063e985e9c514610652578063f250086f1461068f578063f2fde38b146106cc578063fdbda0ec146106f5576101c2565b8063b2733b3914610598578063b88d4fde146105c1578063c87b56dd146105ea578063d106f01c14610627576101c2565b80638da5cb5b116100d15780638da5cb5b146104dc57806395d89b4114610507578063a22cb46514610532578063a34b46fe1461055b576101c2565b806370a0823114610445578063715018a6146104825780637d4cd84714610499576101c2565b80631e5769121161016457806342842e0e1161013e57806342842e0e1461039857806346edcd52146103c157806351ed8288146103ec5780636352211e14610408576101c2565b80631e5769121461031657806323b872dd1461033257806341c405761461035b576101c2565b806306fdde03116101a057806306fdde031461025a578063081812fc14610285578063095ea7b3146102c257806315548232146102eb576101c2565b8063010a38f5146101c7578063012386f0146101f257806301ffc9a71461021d575b600080fd5b3480156101d357600080fd5b506101dc610732565b6040516101e991906131ca565b60405180910390f35b3480156101fe57600080fd5b5061020761073c565b604051610214919061343e565b60405180910390f35b34801561022957600080fd5b50610244600480360381019061023f91906134cc565b6109c0565b6040516102519190613508565b60405180910390f35b34801561026657600080fd5b5061026f610a21565b60405161027c919061356d565b60405180910390f35b34801561029157600080fd5b506102ac60048036038101906102a791906135bb565b610ab3565b6040516102b991906135f7565b60405180910390f35b3480156102ce57600080fd5b506102e960048036038101906102e4919061363e565b610acf565b005b3480156102f757600080fd5b50610300610ae5565b60405161030d91906131ca565b60405180910390f35b610330600480360381019061032b91906137b3565b610aea565b005b34801561033e57600080fd5b5061035960048036038101906103549190613822565b610ef2565b005b34801561036757600080fd5b50610382600480360381019061037d9190613875565b610ff4565b60405161038f91906131ca565b60405180910390f35b3480156103a457600080fd5b506103bf60048036038101906103ba9190613822565b6110a7565b005b3480156103cd57600080fd5b506103d66110c7565b6040516103e391906135f7565b60405180910390f35b610406600480360381019061040191906135bb565b6110eb565b005b34801561041457600080fd5b5061042f600480360381019061042a91906135bb565b611513565b60405161043c91906135f7565b60405180910390f35b34801561045157600080fd5b5061046c60048036038101906104679190613875565b611525565b60405161047991906131ca565b60405180910390f35b34801561048e57600080fd5b506104976115df565b005b3480156104a557600080fd5b506104c060048036038101906104bb91906135bb565b6115f3565b6040516104d397969594939291906138a2565b60405180910390f35b3480156104e857600080fd5b506104f16116ea565b6040516104fe91906135f7565b60405180910390f35b34801561051357600080fd5b5061051c611714565b604051610529919061356d565b60405180910390f35b34801561053e57600080fd5b5061055960048036038101906105549190613944565b6117a6565b005b34801561056757600080fd5b50610582600480360381019061057d91906135bb565b6117bc565b60405161058f9190613a62565b60405180910390f35b3480156105a457600080fd5b506105bf60048036038101906105ba9190613a84565b611b87565b005b3480156105cd57600080fd5b506105e860048036038101906105e39190613b65565b611cc7565b005b3480156105f657600080fd5b50610611600480360381019061060c91906135bb565b611cec565b60405161061e919061356d565b60405180910390f35b34801561063357600080fd5b5061063c611dff565b60405161064991906135f7565b60405180910390f35b34801561065e57600080fd5b5061067960048036038101906106749190613be8565b611e23565b6040516106869190613508565b60405180910390f35b34801561069b57600080fd5b506106b660048036038101906106b19190613875565b611eb7565b6040516106c391906131ca565b60405180910390f35b3480156106d857600080fd5b506106f360048036038101906106ee9190613875565b611ecf565b005b34801561070157600080fd5b5061071c600480360381019061071791906135bb565b611f55565b60405161072991906135f7565b60405180910390f35b6000600854905090565b6060600080600190505b600854811161079a576009600082815260200190815260200160002060040160009054906101000a900460ff161561078757818061078390613c57565b9250505b808061079290613c57565b915050610746565b5060008167ffffffffffffffff8111156107b7576107b6613688565b5b6040519080825280602002602001820160405280156107f057816020015b6107dd61312c565b8152602001906001900390816107d55790505b509050600080600190505b60085481116109b6576009600082815260200190815260200160002060040160009054906101000a900460ff16156109a357600960008281526020019081526020016000206040518060e0016040529081600082015481526020016001820160009054906101000a900473ffffffffffffffffffffffffffffffffffffffff1673ffffffffffffffffffffffffffffffffffffffff1673ffffffffffffffffffffffffffffffffffffffff16815260200160028201548152602001600382015481526020016004820160009054906101000a900460ff16151515158152602001600582015481526020016006820180546108f490613cce565b80601f016020809104026020016040519081016040528092919081815260200182805461092090613cce565b801561096d5780601f106109425761010080835404028352916020019161096d565b820191906000526020600020905b81548152906001019060200180831161095057829003601f168201915b50505050508152505083838151811061098957610988613cff565b5b6020026020010181905250818061099f90613c57565b9250505b80806109ae90613c57565b9150506107fb565b5081935050505090565b6000634906490660e01b7bffffffffffffffffffffffffffffffffffffffffffffffffffffffff1916827bffffffffffffffffffffffffffffffffffffffffffffffffffffffff19161480610a1a5750610a1982611f88565b5b9050919050565b606060008054610a3090613cce565b80601f0160208091040260200160405190810160405280929190818152602001828054610a5c90613cce565b8015610aa95780601f10610a7e57610100808354040283529160200191610aa9565b820191906000526020600020905b815481529060010190602001808311610a8c57829003601f168201915b5050505050905090565b6000610abe8261206a565b50610ac8826120f2565b9050919050565b610ae18282610adc61212f565b612137565b5050565b600a81565b3373ffffffffffffffffffffffffffffffffffffffff16600b600084815260200190815260200160002060009054906101000a900473ffffffffffffffffffffffffffffffffffffffff1673ffffffffffffffffffffffffffffffffffffffff1614610b8b576040517f08c379a0000000000000000000000000000000000000000000000000000000008152600401610b8290613d7a565b60405180910390fd5b6000610b95612149565b9050610ba1848261216b565b60007f000000000000000000000000000000000000000000000000000000000000000073ffffffffffffffffffffffffffffffffffffffff1663925e6b17836040518263ffffffff1660e01b8152600401610bfc91906131ca565b6020604051808303816000875af1158015610c1b573d6000803e3d6000fd5b505050506040513d601f19601f82011682018060405250810190610c3f9190613daf565b90507f000000000000000000000000000000000000000000000000000000000000000073ffffffffffffffffffffffffffffffffffffffff1663515722c8868460016040518463ffffffff1660e01b8152600401610c9f93929190613ddc565b600060405180830381600087803b158015610cb957600080fd5b505af1158015610ccd573d6000803e3d6000fd5b505050506040518060e00160405280838152602001600b600087815260200190815260200160002060009054906101000a900473ffffffffffffffffffffffffffffffffffffffff1673ffffffffffffffffffffffffffffffffffffffff16638da5cb5b6040518163ffffffff1660e01b8152600401602060405180830381865afa158015610d60573d6000803e3d6000fd5b505050506040513d601f19601f82011682018060405250810190610d849190613e28565b73ffffffffffffffffffffffffffffffffffffffff168152602001828152602001600081526020016000151581526020016000815260200184815250600960008481526020019081526020016000206000820151816000015560208201518160010160006101000a81548173ffffffffffffffffffffffffffffffffffffffff021916908373ffffffffffffffffffffffffffffffffffffffff160217905550604082015181600201556060820151816003015560808201518160040160006101000a81548160ff02191690831515021790555060a0820151816005015560c0820151816006019081610e779190614001565b509050507f463d85ceb93cc4d7ddf6727f8a3206619e95f36edb2a7851afccd49445dc902782600b600087815260200190815260200160002060009054906101000a900473ffffffffffffffffffffffffffffffffffffffff168386604051610ee394939291906140d3565b60405180910390a15050505050565b600073ffffffffffffffffffffffffffffffffffffffff168273ffffffffffffffffffffffffffffffffffffffff1603610f645760006040517f64a0ae92000000000000000000000000000000000000000000000000000000008152600401610f5b91906135f7565b60405180910390fd5b6000610f788383610f7361212f565b612189565b90508373ffffffffffffffffffffffffffffffffffffffff168173ffffffffffffffffffffffffffffffffffffffff1614610fee578382826040517f64283d7b000000000000000000000000000000000000000000000000000000008152600401610fe59392919061411f565b60405180910390fd5b50505050565b60006008600081548092919061100990613c57565b919050555081600b6000600854815260200190815260200160002060006101000a81548173ffffffffffffffffffffffffffffffffffffffff021916908373ffffffffffffffffffffffffffffffffffffffff1602179055507f84d22b4eb65d999c44673afd8936d894d084c175f30024518d73d118d4a20aaf60085483604051611095929190614156565b60405180910390a16008549050919050565b6110c283838360405180602001604052806000815250611cc7565b505050565b7f000000000000000000000000000000000000000000000000000000000000000081565b6009600082815260200190815260200160002060040160009054906101000a900460ff1661114e576040517f08c379a0000000000000000000000000000000000000000000000000000000008152600401611145906141cb565b60405180910390fd5b60096000828152602001908152602001600020600501543410156111a7576040517f08c379a000000000000000000000000000000000000000000000000000000000815260040161119e90614237565b60405180910390fd5b60006111b282611513565b90507f000000000000000000000000000000000000000000000000000000000000000073ffffffffffffffffffffffffffffffffffffffff1663515722c8828460006040518463ffffffff1660e01b815260040161121293929190613ddc565b600060405180830381600087803b15801561122c57600080fd5b505af1158015611240573d6000803e3d6000fd5b505050507f000000000000000000000000000000000000000000000000000000000000000073ffffffffffffffffffffffffffffffffffffffff1663515722c8338460016040518463ffffffff1660e01b81526004016112a293929190613ddc565b600060405180830381600087803b1580156112bc57600080fd5b505af11580156112d0573d6000803e3d6000fd5b505050506112df8133846123a3565b60006064600a346112f09190614257565b6112fa91906142c8565b90506000813461130a91906142f9565b905060007f000000000000000000000000000000000000000000000000000000000000000073ffffffffffffffffffffffffffffffffffffffff16836040516113529061435e565b60006040518083038185875af1925050503d806000811461138f576040519150601f19603f3d011682016040523d82523d6000602084013e611394565b606091505b50509050806113d8576040517f08c379a00000000000000000000000000000000000000000000000000000000081526004016113cf906143bf565b60405180910390fd5b8373ffffffffffffffffffffffffffffffffffffffff16826040516113fc9061435e565b60006040518083038185875af1925050503d8060008114611439576040519150601f19603f3d011682016040523d82523d6000602084013e61143e565b606091505b50508091505080611484576040517f08c379a000000000000000000000000000000000000000000000000000000000815260040161147b9061442b565b60405180910390fd5b60006009600087815260200190815260200160002060040160006101000a81548160ff021916908315150217905550600060096000878152602001908152602001600020600501819055507f8562eb94748e30bb0071e932744ce902b460c683474fcb3bfd567ffa16b1afb285853334604051611504949392919061444b565b60405180910390a15050505050565b600061151e8261206a565b9050919050565b60008073ffffffffffffffffffffffffffffffffffffffff168273ffffffffffffffffffffffffffffffffffffffff16036115985760006040517f89c62b6400000000000000000000000000000000000000000000000000000000815260040161158f91906135f7565b60405180910390fd5b600360008373ffffffffffffffffffffffffffffffffffffffff1673ffffffffffffffffffffffffffffffffffffffff168152602001908152602001600020549050919050565b6115e7612510565b6115f16000612597565b565b60096020528060005260406000206000915090508060000154908060010160009054906101000a900473ffffffffffffffffffffffffffffffffffffffff16908060020154908060030154908060040160009054906101000a900460ff169080600501549080600601805461166790613cce565b80601f016020809104026020016040519081016040528092919081815260200182805461169390613cce565b80156116e05780601f106116b5576101008083540402835291602001916116e0565b820191906000526020600020905b8154815290600101906020018083116116c357829003601f168201915b5050505050905087565b6000600760009054906101000a900473ffffffffffffffffffffffffffffffffffffffff16905090565b60606001805461172390613cce565b80601f016020809104026020016040519081016040528092919081815260200182805461174f90613cce565b801561179c5780601f106117715761010080835404028352916020019161179c565b820191906000526020600020905b81548152906001019060200180831161177f57829003601f168201915b5050505050905090565b6117b86117b161212f565b838361265d565b5050565b6060600060085467ffffffffffffffff8111156117dc576117db613688565b5b60405190808252806020026020018201604052801561181557816020015b611802613181565b8152602001906001900390816117fa5790505b509050600080600190505b600854811161197557600061183482611513565b90506000600a60008373ffffffffffffffffffffffffffffffffffffffff1673ffffffffffffffffffffffffffffffffffffffff1681526020019081526020016000205490506000805b858110156118f3578373ffffffffffffffffffffffffffffffffffffffff168782815181106118b0576118af613cff565b5b60200260200101516000015173ffffffffffffffffffffffffffffffffffffffff16036118e057600191506118f3565b80806118eb90613c57565b91505061187e565b50801580156119025750600082115b1561195f5760405180604001604052808473ffffffffffffffffffffffffffffffffffffffff1681526020018381525086868151811061194557611944613cff565b5b6020026020010181905250848061195b90613c57565b9550505b505050808061196d90613c57565b915050611820565b5060005b60018261198691906142f9565b811015611ab75760005b6001828461199e91906142f9565b6119a891906142f9565b811015611aa357836001826119bd9190614490565b815181106119ce576119cd613cff565b5b6020026020010151602001518482815181106119ed576119ec613cff565b5b6020026020010151602001511015611a90576000848281518110611a1457611a13613cff565b5b6020026020010151905084600183611a2c9190614490565b81518110611a3d57611a3c613cff565b5b6020026020010151858381518110611a5857611a57613cff565b5b60200260200101819052508085600184611a729190614490565b81518110611a8357611a82613cff565b5b6020026020010181905250505b8080611a9b90613c57565b915050611990565b508080611aaf90613c57565b915050611979565b506000818510611ac75781611ac9565b845b905060008167ffffffffffffffff811115611ae757611ae6613688565b5b604051908082528060200260200182016040528015611b2057816020015b611b0d613181565b815260200190600190039081611b055790505b50905060005b82811015611b7a57848181518110611b4157611b40613cff565b5b6020026020010151828281518110611b5c57611b5b613cff565b5b60200260200101819052508080611b7290613c57565b915050611b26565b5080945050505050919050565b3373ffffffffffffffffffffffffffffffffffffffff16611ba783611513565b73ffffffffffffffffffffffffffffffffffffffff1614611bfd576040517f08c379a0000000000000000000000000000000000000000000000000000000008152600401611bf490614510565b60405180910390fd5b60008111611c40576040517f08c379a0000000000000000000000000000000000000000000000000000000008152600401611c379061457c565b60405180910390fd5b60016009600084815260200190815260200160002060040160006101000a81548160ff0219169083151502179055508060096000848152602001908152602001600020600501819055507fa6cd73580a273eec6c1026108f6b63479fbaef5356dde4ff43e4b38dd187485f8282604051611cbb92919061459c565b60405180910390a15050565b611cd2848484610ef2565b611ce6611cdd61212f565b858585856127cc565b50505050565b6060611cf78261206a565b506000600660008481526020019081526020016000208054611d1890613cce565b80601f0160208091040260200160405190810160405280929190818152602001828054611d4490613cce565b8015611d915780601f10611d6657610100808354040283529160200191611d91565b820191906000526020600020905b815481529060010190602001808311611d7457829003601f168201915b505050505090506000611da261297d565b90506000815103611db7578192505050611dfa565b600082511115611dec578082604051602001611dd4929190614601565b60405160208183030381529060405292505050611dfa565b611df584612994565b925050505b919050565b7f000000000000000000000000000000000000000000000000000000000000000081565b6000600560008473ffffffffffffffffffffffffffffffffffffffff1673ffffffffffffffffffffffffffffffffffffffff16815260200190815260200160002060008373ffffffffffffffffffffffffffffffffffffffff1673ffffffffffffffffffffffffffffffffffffffff16815260200190815260200160002060009054906101000a900460ff16905092915050565b600a6020528060005260406000206000915090505481565b611ed7612510565b600073ffffffffffffffffffffffffffffffffffffffff168173ffffffffffffffffffffffffffffffffffffffff1603611f495760006040517f1e4fbdf7000000000000000000000000000000000000000000000000000000008152600401611f4091906135f7565b60405180910390fd5b611f5281612597565b50565b600b6020528060005260406000206000915054906101000a900473ffffffffffffffffffffffffffffffffffffffff1681565b60007f80ac58cd000000000000000000000000000000000000000000000000000000007bffffffffffffffffffffffffffffffffffffffffffffffffffffffff1916827bffffffffffffffffffffffffffffffffffffffffffffffffffffffff1916148061205357507f5b5e139f000000000000000000000000000000000000000000000000000000007bffffffffffffffffffffffffffffffffffffffffffffffffffffffff1916827bffffffffffffffffffffffffffffffffffffffffffffffffffffffff1916145b806120635750612062826129fd565b5b9050919050565b60008061207683612a67565b9050600073ffffffffffffffffffffffffffffffffffffffff168173ffffffffffffffffffffffffffffffffffffffff16036120e957826040517f7e2732890000000000000000000000000000000000000000000000000000000081526004016120e091906131ca565b60405180910390fd5b80915050919050565b60006004600083815260200190815260200160002060009054906101000a900473ffffffffffffffffffffffffffffffffffffffff169050919050565b600033905090565b6121448383836001612aa4565b505050565b60006008600081548092919061215e90613c57565b9190505550600854905090565b612185828260405180602001604052806000815250612c69565b5050565b60008061219584612a67565b9050600073ffffffffffffffffffffffffffffffffffffffff168373ffffffffffffffffffffffffffffffffffffffff16146121d7576121d6818486612c8d565b5b600073ffffffffffffffffffffffffffffffffffffffff168173ffffffffffffffffffffffffffffffffffffffff161461226857612219600085600080612aa4565b6001600360008373ffffffffffffffffffffffffffffffffffffffff1673ffffffffffffffffffffffffffffffffffffffff168152602001908152602001600020600082825403925050819055505b600073ffffffffffffffffffffffffffffffffffffffff168573ffffffffffffffffffffffffffffffffffffffff16146122eb576001600360008773ffffffffffffffffffffffffffffffffffffffff1673ffffffffffffffffffffffffffffffffffffffff168152602001908152602001600020600082825401925050819055505b846002600086815260200190815260200160002060006101000a81548173ffffffffffffffffffffffffffffffffffffffff021916908373ffffffffffffffffffffffffffffffffffffffff160217905550838573ffffffffffffffffffffffffffffffffffffffff168273ffffffffffffffffffffffffffffffffffffffff167fddf252ad1be2c89b69c2b068fc378daa952ba7f163c4a11628f55a4df523b3ef60405160405180910390a4809150509392505050565b600073ffffffffffffffffffffffffffffffffffffffff168273ffffffffffffffffffffffffffffffffffffffff16036124155760006040517f64a0ae9200000000000000000000000000000000000000000000000000000000815260040161240c91906135f7565b60405180910390fd5b600061242383836000612189565b9050600073ffffffffffffffffffffffffffffffffffffffff168173ffffffffffffffffffffffffffffffffffffffff160361249657816040517f7e27328900000000000000000000000000000000000000000000000000000000815260040161248d91906131ca565b60405180910390fd5b8373ffffffffffffffffffffffffffffffffffffffff168173ffffffffffffffffffffffffffffffffffffffff161461250a578382826040517f64283d7b0000000000000000000000000000000000000000000000000000000081526004016125019392919061411f565b60405180910390fd5b50505050565b61251861212f565b73ffffffffffffffffffffffffffffffffffffffff166125366116ea565b73ffffffffffffffffffffffffffffffffffffffff16146125955761255961212f565b6040517f118cdaa700000000000000000000000000000000000000000000000000000000815260040161258c91906135f7565b60405180910390fd5b565b6000600760009054906101000a900473ffffffffffffffffffffffffffffffffffffffff16905081600760006101000a81548173ffffffffffffffffffffffffffffffffffffffff021916908373ffffffffffffffffffffffffffffffffffffffff1602179055508173ffffffffffffffffffffffffffffffffffffffff168173ffffffffffffffffffffffffffffffffffffffff167f8be0079c531659141344cd1fd0a4f28419497f9722a3daafe3b4186f6b6457e060405160405180910390a35050565b600073ffffffffffffffffffffffffffffffffffffffff168273ffffffffffffffffffffffffffffffffffffffff16036126ce57816040517f5b08ba180000000000000000000000000000000000000000000000000000000081526004016126c591906135f7565b60405180910390fd5b80600560008573ffffffffffffffffffffffffffffffffffffffff1673ffffffffffffffffffffffffffffffffffffffff16815260200190815260200160002060008473ffffffffffffffffffffffffffffffffffffffff1673ffffffffffffffffffffffffffffffffffffffff16815260200190815260200160002060006101000a81548160ff0219169083151502179055508173ffffffffffffffffffffffffffffffffffffffff168373ffffffffffffffffffffffffffffffffffffffff167f17307eab39ab6107e8899845ad3d59bd9653f200f220920489ca2b5937696c31836040516127bf9190613508565b60405180910390a3505050565b60008373ffffffffffffffffffffffffffffffffffffffff163b1115612976578273ffffffffffffffffffffffffffffffffffffffff1663150b7a02868685856040518563ffffffff1660e01b815260040161282b949392919061467a565b6020604051808303816000875af192505050801561286757506040513d601f19601f8201168201806040525081019061286491906146db565b60015b6128eb573d8060008114612897576040519150601f19603f3d011682016040523d82523d6000602084013e61289c565b606091505b5060008151036128e357836040517f64a0ae920000000000000000000000000000000000000000000000000000000081526004016128da91906135f7565b60405180910390fd5b805181602001fd5b63150b7a0260e01b7bffffffffffffffffffffffffffffffffffffffffffffffffffffffff1916817bffffffffffffffffffffffffffffffffffffffffffffffffffffffff19161461297457836040517f64a0ae9200000000000000000000000000000000000000000000000000000000815260040161296b91906135f7565b60405180910390fd5b505b5050505050565b606060405180602001604052806000815250905090565b606061299f8261206a565b5060006129aa61297d565b905060008151116129ca57604051806020016040528060008152506129f5565b806129d484612d51565b6040516020016129e5929190614601565b6040516020818303038152906040525b915050919050565b60007f01ffc9a7000000000000000000000000000000000000000000000000000000007bffffffffffffffffffffffffffffffffffffffffffffffffffffffff1916827bffffffffffffffffffffffffffffffffffffffffffffffffffffffff1916149050919050565b60006002600083815260200190815260200160002060009054906101000a900473ffffffffffffffffffffffffffffffffffffffff169050919050565b8080612add5750600073ffffffffffffffffffffffffffffffffffffffff168273ffffffffffffffffffffffffffffffffffffffff1614155b15612c11576000612aed8461206a565b9050600073ffffffffffffffffffffffffffffffffffffffff168373ffffffffffffffffffffffffffffffffffffffff1614158015612b5857508273ffffffffffffffffffffffffffffffffffffffff168173ffffffffffffffffffffffffffffffffffffffff1614155b8015612b6b5750612b698184611e23565b155b15612bad57826040517fa9fbf51f000000000000000000000000000000000000000000000000000000008152600401612ba491906135f7565b60405180910390fd5b8115612c0f57838573ffffffffffffffffffffffffffffffffffffffff168273ffffffffffffffffffffffffffffffffffffffff167f8c5be1e5ebec7d5bd14f71427d1e84f3dd0314c0f7b2291e5b200ac8c7c3b92560405160405180910390a45b505b836004600085815260200190815260200160002060006101000a81548173ffffffffffffffffffffffffffffffffffffffff021916908373ffffffffffffffffffffffffffffffffffffffff16021790555050505050565b612c738383612e1f565b612c88612c7e61212f565b60008585856127cc565b505050565b612c98838383612f18565b612d4c57600073ffffffffffffffffffffffffffffffffffffffff168373ffffffffffffffffffffffffffffffffffffffff1603612d0d57806040517f7e273289000000000000000000000000000000000000000000000000000000008152600401612d0491906131ca565b60405180910390fd5b81816040517f177e802f000000000000000000000000000000000000000000000000000000008152600401612d43929190614708565b60405180910390fd5b505050565b606060006001612d6084612fd9565b01905060008167ffffffffffffffff811115612d7f57612d7e613688565b5b6040519080825280601f01601f191660200182016040528015612db15781602001600182028036833780820191505090505b509050600082602001820190505b600115612e14578080600190039150507f3031323334353637383961626364656600000000000000000000000000000000600a86061a8153600a8581612e0857612e07614299565b5b04945060008503612dbf575b819350505050919050565b600073ffffffffffffffffffffffffffffffffffffffff168273ffffffffffffffffffffffffffffffffffffffff1603612e915760006040517f64a0ae92000000000000000000000000000000000000000000000000000000008152600401612e8891906135f7565b60405180910390fd5b6000612e9f83836000612189565b9050600073ffffffffffffffffffffffffffffffffffffffff168173ffffffffffffffffffffffffffffffffffffffff1614612f135760006040517f73c6ac6e000000000000000000000000000000000000000000000000000000008152600401612f0a91906135f7565b60405180910390fd5b505050565b60008073ffffffffffffffffffffffffffffffffffffffff168373ffffffffffffffffffffffffffffffffffffffff1614158015612fd057508273ffffffffffffffffffffffffffffffffffffffff168473ffffffffffffffffffffffffffffffffffffffff161480612f915750612f908484611e23565b5b80612fcf57508273ffffffffffffffffffffffffffffffffffffffff16612fb7836120f2565b73ffffffffffffffffffffffffffffffffffffffff16145b5b90509392505050565b600080600090507a184f03e93ff9f4daa797ed6e38ed64bf6a1f0100000000000000008310613037577a184f03e93ff9f4daa797ed6e38ed64bf6a1f010000000000000000838161302d5761302c614299565b5b0492506040810190505b6d04ee2d6d415b85acef81000000008310613074576d04ee2d6d415b85acef8100000000838161306a57613069614299565b5b0492506020810190505b662386f26fc1000083106130a357662386f26fc10000838161309957613098614299565b5b0492506010810190505b6305f5e10083106130cc576305f5e10083816130c2576130c1614299565b5b0492506008810190505b61271083106130f15761271083816130e7576130e6614299565b5b0492506004810190505b60648310613114576064838161310a57613109614299565b5b0492506002810190505b600a8310613123576001810190505b80915050919050565b6040518060e0016040528060008152602001600073ffffffffffffffffffffffffffffffffffffffff168152602001600081526020016000815260200160001515815260200160008152602001606081525090565b6040518060400160405280600073ffffffffffffffffffffffffffffffffffffffff168152602001600081525090565b6000819050919050565b6131c4816131b1565b82525050565b60006020820190506131df60008301846131bb565b92915050565b600081519050919050565b600082825260208201905092915050565b6000819050602082019050919050565b61321a816131b1565b82525050565b600073ffffffffffffffffffffffffffffffffffffffff82169050919050565b600061324b82613220565b9050919050565b61325b81613240565b82525050565b60008115159050919050565b61327681613261565b82525050565b600081519050919050565b600082825260208201905092915050565b60005b838110156132b657808201518184015260208101905061329b565b60008484015250505050565b6000601f19601f8301169050919050565b60006132de8261327c565b6132e88185613287565b93506132f8818560208601613298565b613301816132c2565b840191505092915050565b600060e0830160008301516133246000860182613211565b5060208301516133376020860182613252565b50604083015161334a6040860182613211565b50606083015161335d6060860182613211565b506080830151613370608086018261326d565b5060a083015161338360a0860182613211565b5060c083015184820360c086015261339b82826132d3565b9150508091505092915050565b60006133b4838361330c565b905092915050565b6000602082019050919050565b60006133d4826131e5565b6133de81856131f0565b9350836020820285016133f085613201565b8060005b8581101561342c578484038952815161340d85826133a8565b9450613418836133bc565b925060208a019950506001810190506133f4565b50829750879550505050505092915050565b6000602082019050818103600083015261345881846133c9565b905092915050565b6000604051905090565b600080fd5b600080fd5b60007fffffffff0000000000000000000000000000000000000000000000000000000082169050919050565b6134a981613474565b81146134b457600080fd5b50565b6000813590506134c6816134a0565b92915050565b6000602082840312156134e2576134e161346a565b5b60006134f0848285016134b7565b91505092915050565b61350281613261565b82525050565b600060208201905061351d60008301846134f9565b92915050565b600082825260208201905092915050565b600061353f8261327c565b6135498185613523565b9350613559818560208601613298565b613562816132c2565b840191505092915050565b600060208201905081810360008301526135878184613534565b905092915050565b613598816131b1565b81146135a357600080fd5b50565b6000813590506135b58161358f565b92915050565b6000602082840312156135d1576135d061346a565b5b60006135df848285016135a6565b91505092915050565b6135f181613240565b82525050565b600060208201905061360c60008301846135e8565b92915050565b61361b81613240565b811461362657600080fd5b50565b60008135905061363881613612565b92915050565b600080604083850312156136555761365461346a565b5b600061366385828601613629565b9250506020613674858286016135a6565b9150509250929050565b600080fd5b600080fd5b7f4e487b7100000000000000000000000000000000000000000000000000000000600052604160045260246000fd5b6136c0826132c2565b810181811067ffffffffffffffff821117156136df576136de613688565b5b80604052505050565b60006136f2613460565b90506136fe82826136b7565b919050565b600067ffffffffffffffff82111561371e5761371d613688565b5b613727826132c2565b9050602081019050919050565b82818337600083830152505050565b600061375661375184613703565b6136e8565b90508281526020810184848401111561377257613771613683565b5b61377d848285613734565b509392505050565b600082601f83011261379a5761379961367e565b5b81356137aa848260208601613743565b91505092915050565b6000806000606084860312156137cc576137cb61346a565b5b60006137da86828701613629565b93505060206137eb868287016135a6565b925050604084013567ffffffffffffffff81111561380c5761380b61346f565b5b61381886828701613785565b9150509250925092565b60008060006060848603121561383b5761383a61346a565b5b600061384986828701613629565b935050602061385a86828701613629565b925050604061386b868287016135a6565b9150509250925092565b60006020828403121561388b5761388a61346a565b5b600061389984828501613629565b91505092915050565b600060e0820190506138b7600083018a6131bb565b6138c460208301896135e8565b6138d160408301886131bb565b6138de60608301876131bb565b6138eb60808301866134f9565b6138f860a08301856131bb565b81810360c083015261390a8184613534565b905098975050505050505050565b61392181613261565b811461392c57600080fd5b50565b60008135905061393e81613918565b92915050565b6000806040838503121561395b5761395a61346a565b5b600061396985828601613629565b925050602061397a8582860161392f565b9150509250929050565b600081519050919050565b600082825260208201905092915050565b6000819050602082019050919050565b6040820160008201516139c66000850182613252565b5060208201516139d96020850182613211565b50505050565b60006139eb83836139b0565b60408301905092915050565b6000602082019050919050565b6000613a0f82613984565b613a19818561398f565b9350613a24836139a0565b8060005b83811015613a55578151613a3c88826139df565b9750613a47836139f7565b925050600181019050613a28565b5085935050505092915050565b60006020820190508181036000830152613a7c8184613a04565b905092915050565b60008060408385031215613a9b57613a9a61346a565b5b6000613aa9858286016135a6565b9250506020613aba858286016135a6565b9150509250929050565b600067ffffffffffffffff821115613adf57613ade613688565b5b613ae8826132c2565b9050602081019050919050565b6000613b08613b0384613ac4565b6136e8565b905082815260208101848484011115613b2457613b23613683565b5b613b2f848285613734565b509392505050565b600082601f830112613b4c57613b4b61367e565b5b8135613b5c848260208601613af5565b91505092915050565b60008060008060808587031215613b7f57613b7e61346a565b5b6000613b8d87828801613629565b9450506020613b9e87828801613629565b9350506040613baf878288016135a6565b925050606085013567ffffffffffffffff811115613bd057613bcf61346f565b5b613bdc87828801613b37565b91505092959194509250565b60008060408385031215613bff57613bfe61346a565b5b6000613c0d85828601613629565b9250506020613c1e85828601613629565b9150509250929050565b7f4e487b7100000000000000000000000000000000000000000000000000000000600052601160045260246000fd5b6000613c62826131b1565b91507fffffffffffffffffffffffffffffffffffffffffffffffffffffffffffffffff8203613c9457613c93613c28565b5b600182019050919050565b7f4e487b7100000000000000000000000000000000000000000000000000000000600052602260045260246000fd5b60006002820490506001821680613ce657607f821691505b602082108103613cf957613cf8613c9f565b5b50919050565b7f4e487b7100000000000000000000000000000000000000000000000000000000600052603260045260246000fd5b7f4e6f7420636f6c6c656374696f6e20636f6e7472616374000000000000000000600082015250565b6000613d64601783613523565b9150613d6f82613d2e565b602082019050919050565b60006020820190508181036000830152613d9381613d57565b9050919050565b600081519050613da98161358f565b92915050565b600060208284031215613dc557613dc461346a565b5b6000613dd384828501613d9a565b91505092915050565b6000606082019050613df160008301866135e8565b613dfe60208301856131bb565b613e0b60408301846134f9565b949350505050565b600081519050613e2281613612565b92915050565b600060208284031215613e3e57613e3d61346a565b5b6000613e4c84828501613e13565b91505092915050565b60008190508160005260206000209050919050565b60006020601f8301049050919050565b600082821b905092915050565b600060088302613eb77fffffffffffffffffffffffffffffffffffffffffffffffffffffffffffffffff82613e7a565b613ec18683613e7a565b95508019841693508086168417925050509392505050565b6000819050919050565b6000613efe613ef9613ef4846131b1565b613ed9565b6131b1565b9050919050565b6000819050919050565b613f1883613ee3565b613f2c613f2482613f05565b848454613e87565b825550505050565b600090565b613f41613f34565b613f4c818484613f0f565b505050565b5b81811015613f7057613f65600082613f39565b600181019050613f52565b5050565b601f821115613fb557613f8681613e55565b613f8f84613e6a565b81016020851015613f9e578190505b613fb2613faa85613e6a565b830182613f51565b50505b505050565b600082821c905092915050565b6000613fd860001984600802613fba565b1980831691505092915050565b6000613ff18383613fc7565b9150826002028217905092915050565b61400a8261327c565b67ffffffffffffffff81111561402357614022613688565b5b61402d8254613cce565b614038828285613f74565b600060209050601f83116001811461406b5760008415614059578287015190505b6140638582613fe5565b8655506140cb565b601f19841661407986613e55565b60005b828110156140a15784890151825560018201915060208501945060208101905061407c565b868310156140be57848901516140ba601f891682613fc7565b8355505b6001600288020188555050505b505050505050565b60006080820190506140e860008301876131bb565b6140f560208301866135e8565b61410260408301856131bb565b81810360608301526141148184613534565b905095945050505050565b600060608201905061413460008301866135e8565b61414160208301856131bb565b61414e60408301846135e8565b949350505050565b600060408201905061416b60008301856131bb565b61417860208301846135e8565b9392505050565b7f4e4654206e6f74206c697374656420666f722073616c65000000000000000000600082015250565b60006141b5601783613523565b91506141c08261417f565b602082019050919050565b600060208201905081810360008301526141e4816141a8565b9050919050565b7f496e73756666696369656e74207061796d656e74000000000000000000000000600082015250565b6000614221601483613523565b915061422c826141eb565b602082019050919050565b6000602082019050818103600083015261425081614214565b9050919050565b6000614262826131b1565b915061426d836131b1565b925082820261427b816131b1565b9150828204841483151761429257614291613c28565b5b5092915050565b7f4e487b7100000000000000000000000000000000000000000000000000000000600052601260045260246000fd5b60006142d3826131b1565b91506142de836131b1565b9250826142ee576142ed614299565b5b828204905092915050565b6000614304826131b1565b915061430f836131b1565b925082820390508181111561432757614326613c28565b5b92915050565b600081905092915050565b50565b600061434860008361432d565b915061435382614338565b600082019050919050565b60006143698261433b565b9150819050919050565b7f4661696c656420746f207472616e7366657220706c6174666f726d2066656500600082015250565b60006143a9601f83613523565b91506143b482614373565b602082019050919050565b600060208201905081810360008301526143d88161439c565b9050919050565b7f4661696c656420746f207472616e7366657220746f2073656c6c657200000000600082015250565b6000614415601c83613523565b9150614420826143df565b602082019050919050565b6000602082019050818103600083015261444481614408565b9050919050565b600060808201905061446060008301876131bb565b61446d60208301866135e8565b61447a60408301856135e8565b61448760608301846131bb565b95945050505050565b600061449b826131b1565b91506144a6836131b1565b92508282019050808211156144be576144bd613c28565b5b92915050565b7f4e6f7420746f6b656e206f776e65720000000000000000000000000000000000600082015250565b60006144fa600f83613523565b9150614505826144c4565b602082019050919050565b60006020820190508181036000830152614529816144ed565b9050919050565b7f5072696365206d7573742062652067726561746572207468616e203000000000600082015250565b6000614566601c83613523565b915061457182614530565b602082019050919050565b6000602082019050818103600083015261459581614559565b9050919050565b60006040820190506145b160008301856131bb565b6145be60208301846131bb565b9392505050565b600081905092915050565b60006145db8261327c565b6145e581856145c5565b93506145f5818560208601613298565b80840191505092915050565b600061460d82856145d0565b915061461982846145d0565b91508190509392505050565b600081519050919050565b600082825260208201905092915050565b600061464c82614625565b6146568185614630565b9350614666818560208601613298565b61466f816132c2565b840191505092915050565b600060808201905061468f60008301876135e8565b61469c60208301866135e8565b6146a960408301856131bb565b81810360608301526146bb8184614641565b905095945050505050565b6000815190506146d5816134a0565b92915050565b6000602082840312156146f1576146f061346a565b5b60006146ff848285016146c6565b91505092915050565b600060408201905061471d60008301856135e8565b61472a60208301846131bb565b939250505056fea26469706673582212206c6b6eb48f3f94eb00c9b65a528feb3a36fb426aeccb6166f1933aa4d110c00064736f6c63430008140033",
  "linkReferences": {},
  "deployedLinkReferences": {}
}